{
  "address": "0xE5D37a2eBE3e917Db52A35f248576e1EE4C886Fd",
  "abi": [
    {
      "inputs": [],
      "stateMutability": "nonpayable",
      "type": "constructor"
    },
    {
      "anonymous": false,
      "inputs": [
        {
          "indexed": true,
          "internalType": "address",
          "name": "previousOwner",
          "type": "address"
        },
        {
          "indexed": true,
          "internalType": "address",
          "name": "newOwner",
          "type": "address"
        }
      ],
      "name": "OwnershipTransferred",
      "type": "event"
    },
    {
      "inputs": [
        {
          "internalType": "uint256",
          "name": "_tokenId",
          "type": "uint256"
        },
        {
          "internalType": "string",
          "name": "_alias",
          "type": "string"
        }
      ],
      "name": "generate",
      "outputs": [
        {
          "internalType": "string",
          "name": "",
          "type": "string"
        }
      ],
      "stateMutability": "view",
      "type": "function"
    },
    {
      "inputs": [],
      "name": "owner",
      "outputs": [
        {
          "internalType": "address",
          "name": "",
          "type": "address"
        }
      ],
      "stateMutability": "view",
      "type": "function"
    },
    {
      "inputs": [
        {
          "internalType": "bytes",
          "name": "input",
          "type": "bytes"
        }
      ],
      "name": "render",
      "outputs": [
        {
          "internalType": "string",
          "name": "",
          "type": "string"
        }
      ],
      "stateMutability": "view",
      "type": "function"
    },
    {
      "inputs": [
        {
          "internalType": "string",
          "name": "_name",
          "type": "string"
        }
      ],
      "name": "renderUsingEnsName",
      "outputs": [
        {
          "internalType": "string",
          "name": "",
          "type": "string"
        }
      ],
      "stateMutability": "view",
      "type": "function"
    },
    {
      "inputs": [],
      "name": "renounceOwnership",
      "outputs": [],
      "stateMutability": "nonpayable",
      "type": "function"
    },
    {
      "inputs": [
        {
          "internalType": "address",
          "name": "newOwner",
          "type": "address"
        }
      ],
      "name": "transferOwnership",
      "outputs": [],
      "stateMutability": "nonpayable",
      "type": "function"
    }
  ],
  "transactionHash": "0x67b2681d34bf25c277f52f3b3c239bee4865a52e2c24bc8f64846a526a6d5bfb",
  "args": [],
  "numDeployments": 1,
  "solcInputHash": "bbd9a653e7516b4e458dabe2ad1b4fce",
  "bytecode": "0x60c060405234801561001057600080fd5b5061001a3361004f565b730cfdb3ba1694c2bb2cfacb0339ad7b1ae5932b63608052733671ae578e63fdf66ad4f3e12cc0c0d71ac7510c60a05261009f565b600080546001600160a01b038381166001600160a01b0319831681178455604051919092169283917f8be0079c531659141344cd1fd0a4f28419497f9722a3daafe3b4186f6b6457e09190a35050565b60805160a0516110866100ee60003960006108b50152600081816101220152818161025701528181610472015281816104f80152818161057e01528181610604015261068a01526110866000f3fe608060405234801561001057600080fd5b50600436106100625760003560e01c8063231c1d4314610067578063316df61e1461009f578063715018a6146100b25780638da5cb5b146100bc578063a53344e7146100d7578063f2fde38b146100ea575b600080fd5b610089610075366004610c4d565b505060408051602081019091526000815290565b6040516100969190610cc4565b60405180910390f35b6100896100ad366004610cf7565b6100fd565b6100ba6101e8565b005b6000546040516001600160a01b039091168152602001610096565b6100896100e5366004610d40565b610253565b6100ba6100f8366004610d8a565b610317565b6060610108826103e2565b60008280602001905181019061011e9190610da7565b90507f00000000000000000000000000000000000000000000000000000000000000006001600160a01b0316632ea0430061016061015b84610425565b610443565b6040518263ffffffff1660e01b815260040161017c9190610dc4565b600060405180830381865afa158015610199573d6000803e3d6000fd5b505050506040513d6000823e601f3d908101601f191682016040526101c19190810190610e4f565b6040516020016101d19190610e84565b604051602081830303815290604052915050919050565b6000546001600160a01b031633146102475760405162461bcd60e51b815260206004820181905260248201527f4f776e61626c653a2063616c6c6572206973206e6f7420746865206f776e657260448201526064015b60405180910390fd5b61025160006107d4565b565b60607f00000000000000000000000000000000000000000000000000000000000000006001600160a01b0316632ea0430061029061015b85610824565b6040518263ffffffff1660e01b81526004016102ac9190610dc4565b600060405180830381865afa1580156102c9573d6000803e3d6000fd5b505050506040513d6000823e601f3d908101601f191682016040526102f19190810190610e4f565b6040516020016103019190610e84565b6040516020818303038152906040529050919050565b6000546001600160a01b031633146103715760405162461bcd60e51b815260206004820181905260248201527f4f776e61626c653a2063616c6c6572206973206e6f7420746865206f776e6572604482015260640161023e565b6001600160a01b0381166103d65760405162461bcd60e51b815260206004820152602660248201527f4f776e61626c653a206e6577206f776e657220697320746865207a65726f206160448201526564647265737360d01b606482015260840161023e565b6103df816107d4565b50565b6103df816040516024016103f69190610cc4565b60408051601f198184030181529190526020810180516001600160e01b031663104c13eb60e21b179052610835565b60008061043183610856565b905061043c81610953565b9392505050565b6040805160a08101825260008082526020820181905291810182905260608101829052608081019190915260007f00000000000000000000000000000000000000000000000000000000000000006001600160a01b0316634531c0a86040518163ffffffff1660e01b8152600401602060405180830381865afa1580156104ce573d6000803e3d6000fd5b505050506040513d601f19601f820116820180604052508101906104f29190610ec9565b905060007f00000000000000000000000000000000000000000000000000000000000000006001600160a01b031663eba818066040518163ffffffff1660e01b8152600401602060405180830381865afa158015610554573d6000803e3d6000fd5b505050506040513d601f19601f820116820180604052508101906105789190610ec9565b905060007f00000000000000000000000000000000000000000000000000000000000000006001600160a01b0316634daebac26040518163ffffffff1660e01b8152600401602060405180830381865afa1580156105da573d6000803e3d6000fd5b505050506040513d601f19601f820116820180604052508101906105fe9190610ec9565b905060007f00000000000000000000000000000000000000000000000000000000000000006001600160a01b031663cc2aa0916040518163ffffffff1660e01b8152600401602060405180830381865afa158015610660573d6000803e3d6000fd5b505050506040513d601f19601f820116820180604052508101906106849190610ec9565b905060007f00000000000000000000000000000000000000000000000000000000000000006001600160a01b0316634479cef26040518163ffffffff1660e01b8152600401602060405180830381865afa1580156106e6573d6000803e3d6000fd5b505050506040513d601f19601f8201168201806040525081019061070a9190610ec9565b90506040518060a00160405280868965ffffffffffff1661072b9190610ee2565b65ffffffffffff1681526020018560308a901c65ffffffffffff166107509190610ee2565b65ffffffffffff1681526020018460608a901c65ffffffffffff166107759190610ee2565b65ffffffffffff1681526020018360908a901c65ffffffffffff1661079a9190610ee2565b65ffffffffffff1681526020018260c08a901c65ffffffffffff166107bf9190610ee2565b65ffffffffffff169052979650505050505050565b600080546001600160a01b038381166001600160a01b0319831681178455604051919092169283917f8be0079c531659141344cd1fd0a4f28419497f9722a3daafe3b4186f6b6457e09190a35050565b600061082f82610953565b92915050565b80516a636f6e736f6c652e6c6f67602083016000808483855afa5050505050565b6040805160018082528183019092526060916000919060208083019080368337019050509050828160008151811061089057610890610f04565b6001600160a01b0392831660209182029290920101526040516332fe2d9b60e21b81527f00000000000000000000000000000000000000000000000000000000000000009091169063cbf8b66c906108ec908490600401610f1a565b600060405180830381865afa158015610909573d6000803e3d6000fd5b505050506040513d6000823e601f3d908101601f191682016040526109319190810190610f67565b60008151811061094357610943610f04565b6020026020010151915050919050565b60008061095f83610967565b949350505050565b80516060906000908190849061097e81600261102a565b67ffffffffffffffff81111561099657610996610b80565b6040519080825280601f01601f1916602001820160405280156109c0576020820181803683370190505b50945060009350808403610a0557600060f81b856000815181106109e6576109e6610f04565b60200101906001600160f81b031916908160001a905350505050915091565b60001981015b828181518110610a1d57610a1d610f04565b01602001516001600160f81b031916601760f91b03610aab578360f81b868260010181518110610a4f57610a4f610f04565b60200101906001600160f81b031916908160001a90535084610a78846001840160ff8816610b5c565b60408051602081019390935282015260600160405160208183030381529060405280519060200120945060009350610afb565b600184019350828181518110610ac357610ac3610f04565b602001015160f81c60f81b868260010181518110610ae357610ae3610f04565b60200101906001600160f81b031916908160001a9053505b8015610b0a5760001901610a0b565b5083610b1b83600060ff8716610b5c565b6040805160208101939093528201526060016040516020818303038152906040528051906020012093508260f81b856000815181106109e6576109e6610f04565b8251600090610b6b838561102a565b1115610b7657600080fd5b5091016020012090565b634e487b7160e01b600052604160045260246000fd5b604051601f8201601f1916810167ffffffffffffffff81118282101715610bbf57610bbf610b80565b604052919050565b600067ffffffffffffffff821115610be157610be1610b80565b50601f01601f191660200190565b6000610c02610bfd84610bc7565b610b96565b9050828152838383011115610c1657600080fd5b828260208301376000602084830101529392505050565b600082601f830112610c3e57600080fd5b61043c83833560208501610bef565b60008060408385031215610c6057600080fd5b82359150602083013567ffffffffffffffff811115610c7e57600080fd5b610c8a85828601610c2d565b9150509250929050565b60005b83811015610caf578181015183820152602001610c97565b83811115610cbe576000848401525b50505050565b6020815260008251806020840152610ce3816040850160208701610c94565b601f01601f19169190910160400192915050565b600060208284031215610d0957600080fd5b813567ffffffffffffffff811115610d2057600080fd5b8201601f81018413610d3157600080fd5b61095f84823560208401610bef565b600060208284031215610d5257600080fd5b813567ffffffffffffffff811115610d6957600080fd5b61095f84828501610c2d565b6001600160a01b03811681146103df57600080fd5b600060208284031215610d9c57600080fd5b813561043c81610d75565b600060208284031215610db957600080fd5b815161043c81610d75565b815165ffffffffffff9081168252602080840151821690830152604080840151821690830152606080840151821690830152608092830151169181019190915260a00190565b600082601f830112610e1b57600080fd5b8151610e29610bfd82610bc7565b818152846020838601011115610e3e57600080fd5b61095f826020830160208701610c94565b600060208284031215610e6157600080fd5b815167ffffffffffffffff811115610e7857600080fd5b61095f84828501610e0a565b7f646174613a696d6167652f7376672b786d6c3b6261736536342c000000000000815260008251610ebc81601a850160208701610c94565b91909101601a0192915050565b600060208284031215610edb57600080fd5b5051919050565b600082610eff57634e487b7160e01b600052601260045260246000fd5b500690565b634e487b7160e01b600052603260045260246000fd5b6020808252825182820181905260009190848201906040850190845b81811015610f5b5783516001600160a01b031683529284019291840191600101610f36565b50909695505050505050565b60006020808385031215610f7a57600080fd5b825167ffffffffffffffff80821115610f9257600080fd5b818501915085601f830112610fa657600080fd5b815181811115610fb857610fb8610b80565b8060051b610fc7858201610b96565b9182528381018501918581019089841115610fe157600080fd5b86860192505b8383101561101d57825185811115610fff5760008081fd5b61100d8b89838a0101610e0a565b8352509186019190860190610fe7565b9998505050505050505050565b6000821982111561104b57634e487b7160e01b600052601160045260246000fd5b50019056fea26469706673582212208a8d9ecdae5dfe475a6445ee1b1baaefa80b869b922c460e506c3b6ffae3263d64736f6c634300080f0033",
  "devdoc": {
    "kind": "dev",
    "methods": {
      "owner()": {
        "details": "Returns the address of the current owner."
      },
      "renounceOwnership()": {
        "details": "Leaves the contract without owner. It will not be possible to call `onlyOwner` functions anymore. Can only be called by the current owner. NOTE: Renouncing ownership will leave the contract without an owner, thereby removing any functionality that is only available to the owner."
      },
      "transferOwnership(address)": {
        "details": "Transfers ownership of the contract to a new account (`newOwner`). Can only be called by the current owner."
      }
    },
    "version": 1
  },
  "userdoc": {
    "kind": "user",
    "methods": {},
    "version": 1
  },
  "storageLayout": {
    "storage": [
      {
        "astId": 7,
        "contract": "contracts/ENounsRender.sol:ENounsRender",
        "label": "_owner",
        "offset": 0,
        "slot": "0",
        "type": "t_address"
      }
    ],
    "types": {
      "t_address": {
        "encoding": "inplace",
        "label": "address",
        "numberOfBytes": "20"
      }
    }
  }
}