{
  "address": "0xE4C47040B8e535ebaDB6C4E94b95653e4f6dBAbd",
  "abi": [
    {
      "inputs": [
        {
          "internalType": "string",
          "name": "name_",
          "type": "string"
        },
        {
          "internalType": "string",
          "name": "symbol_",
          "type": "string"
        },
        {
          "internalType": "address",
          "name": "_erc721Storage_",
          "type": "address"
        }
      ],
      "stateMutability": "nonpayable",
      "type": "constructor"
    },
    {
      "anonymous": false,
      "inputs": [
        {
          "indexed": true,
          "internalType": "address",
          "name": "owner",
          "type": "address"
        },
        {
          "indexed": true,
          "internalType": "address",
          "name": "approved",
          "type": "address"
        },
        {
          "indexed": true,
          "internalType": "uint256",
          "name": "tokenId",
          "type": "uint256"
        }
      ],
      "name": "Approval",
      "type": "event"
    },
    {
      "anonymous": false,
      "inputs": [
        {
          "indexed": true,
          "internalType": "address",
          "name": "owner",
          "type": "address"
        },
        {
          "indexed": true,
          "internalType": "address",
          "name": "operator",
          "type": "address"
        },
        {
          "indexed": false,
          "internalType": "bool",
          "name": "approved",
          "type": "bool"
        }
      ],
      "name": "ApprovalForAll",
      "type": "event"
    },
    {
      "anonymous": false,
      "inputs": [
        {
          "indexed": true,
          "internalType": "address",
          "name": "previousOwner",
          "type": "address"
        },
        {
          "indexed": true,
          "internalType": "address",
          "name": "newOwner",
          "type": "address"
        }
      ],
      "name": "OwnershipTransferred",
      "type": "event"
    },
    {
      "anonymous": false,
      "inputs": [
        {
          "indexed": true,
          "internalType": "address",
          "name": "from",
          "type": "address"
        },
        {
          "indexed": true,
          "internalType": "address",
          "name": "to",
          "type": "address"
        },
        {
          "indexed": true,
          "internalType": "uint256",
          "name": "tokenId",
          "type": "uint256"
        }
      ],
      "name": "Transfer",
      "type": "event"
    },
    {
      "inputs": [
        {
          "internalType": "address",
          "name": "to",
          "type": "address"
        },
        {
          "internalType": "uint256",
          "name": "tokenId",
          "type": "uint256"
        }
      ],
      "name": "approve",
      "outputs": [],
      "stateMutability": "nonpayable",
      "type": "function"
    },
    {
      "inputs": [
        {
          "internalType": "address",
          "name": "owner",
          "type": "address"
        }
      ],
      "name": "balanceOf",
      "outputs": [
        {
          "internalType": "uint256",
          "name": "",
          "type": "uint256"
        }
      ],
      "stateMutability": "view",
      "type": "function"
    },
    {
      "inputs": [],
      "name": "contractURI",
      "outputs": [
        {
          "internalType": "string",
          "name": "",
          "type": "string"
        }
      ],
      "stateMutability": "view",
      "type": "function"
    },
    {
      "inputs": [
        {
          "internalType": "uint256",
          "name": "tokenId",
          "type": "uint256"
        }
      ],
      "name": "getApproved",
      "outputs": [
        {
          "internalType": "address",
          "name": "",
          "type": "address"
        }
      ],
      "stateMutability": "view",
      "type": "function"
    },
    {
      "inputs": [],
      "name": "getERC721Storage",
      "outputs": [
        {
          "internalType": "address",
          "name": "",
          "type": "address"
        }
      ],
      "stateMutability": "view",
      "type": "function"
    },
    {
      "inputs": [
        {
          "internalType": "address",
          "name": "owner",
          "type": "address"
        },
        {
          "internalType": "address",
          "name": "operator",
          "type": "address"
        }
      ],
      "name": "isApprovedForAll",
      "outputs": [
        {
          "internalType": "bool",
          "name": "",
          "type": "bool"
        }
      ],
      "stateMutability": "view",
      "type": "function"
    },
    {
      "inputs": [],
      "name": "name",
      "outputs": [
        {
          "internalType": "string",
          "name": "",
          "type": "string"
        }
      ],
      "stateMutability": "view",
      "type": "function"
    },
    {
      "inputs": [],
      "name": "owner",
      "outputs": [
        {
          "internalType": "address",
          "name": "",
          "type": "address"
        }
      ],
      "stateMutability": "view",
      "type": "function"
    },
    {
      "inputs": [
        {
          "internalType": "uint256",
          "name": "tokenId",
          "type": "uint256"
        }
      ],
      "name": "ownerOf",
      "outputs": [
        {
          "internalType": "address",
          "name": "",
          "type": "address"
        }
      ],
      "stateMutability": "view",
      "type": "function"
    },
    {
      "inputs": [
        {
          "internalType": "address",
          "name": "user",
          "type": "address"
        }
      ],
      "name": "preview",
      "outputs": [
        {
          "internalType": "string",
          "name": "",
          "type": "string"
        }
      ],
      "stateMutability": "view",
      "type": "function"
    },
    {
      "inputs": [
        {
          "internalType": "string",
          "name": "name",
          "type": "string"
        }
      ],
      "name": "previewUsingEnsName",
      "outputs": [
        {
          "internalType": "string",
          "name": "",
          "type": "string"
        }
      ],
      "stateMutability": "view",
      "type": "function"
    },
    {
      "inputs": [],
      "name": "renounceOwnership",
      "outputs": [],
      "stateMutability": "nonpayable",
      "type": "function"
    },
    {
      "inputs": [
        {
          "internalType": "address",
          "name": "from",
          "type": "address"
        },
        {
          "internalType": "address",
          "name": "to",
          "type": "address"
        },
        {
          "internalType": "uint256",
          "name": "tokenId",
          "type": "uint256"
        }
      ],
      "name": "safeTransferFrom",
      "outputs": [],
      "stateMutability": "nonpayable",
      "type": "function"
    },
    {
      "inputs": [
        {
          "internalType": "address",
          "name": "from",
          "type": "address"
        },
        {
          "internalType": "address",
          "name": "to",
          "type": "address"
        },
        {
          "internalType": "uint256",
          "name": "tokenId",
          "type": "uint256"
        },
        {
          "internalType": "bytes",
          "name": "_data",
          "type": "bytes"
        }
      ],
      "name": "safeTransferFrom",
      "outputs": [],
      "stateMutability": "nonpayable",
      "type": "function"
    },
    {
      "inputs": [
        {
          "internalType": "address",
          "name": "operator",
          "type": "address"
        },
        {
          "internalType": "bool",
          "name": "approved",
          "type": "bool"
        }
      ],
      "name": "setApprovalForAll",
      "outputs": [],
      "stateMutability": "nonpayable",
      "type": "function"
    },
    {
      "inputs": [
        {
          "internalType": "address",
          "name": "erc721Storage",
          "type": "address"
        }
      ],
      "name": "setStorage",
      "outputs": [],
      "stateMutability": "nonpayable",
      "type": "function"
    },
    {
      "inputs": [
        {
          "internalType": "bytes4",
          "name": "interfaceId",
          "type": "bytes4"
        }
      ],
      "name": "supportsInterface",
      "outputs": [
        {
          "internalType": "bool",
          "name": "",
          "type": "bool"
        }
      ],
      "stateMutability": "view",
      "type": "function"
    },
    {
      "inputs": [],
      "name": "symbol",
      "outputs": [
        {
          "internalType": "string",
          "name": "",
          "type": "string"
        }
      ],
      "stateMutability": "view",
      "type": "function"
    },
    {
      "inputs": [
        {
          "internalType": "uint256",
          "name": "tokenId",
          "type": "uint256"
        }
      ],
      "name": "tokenURI",
      "outputs": [
        {
          "internalType": "string",
          "name": "",
          "type": "string"
        }
      ],
      "stateMutability": "view",
      "type": "function"
    },
    {
      "inputs": [
        {
          "internalType": "address",
          "name": "from",
          "type": "address"
        },
        {
          "internalType": "address",
          "name": "to",
          "type": "address"
        },
        {
          "internalType": "uint256",
          "name": "tokenId",
          "type": "uint256"
        }
      ],
      "name": "transferFrom",
      "outputs": [],
      "stateMutability": "nonpayable",
      "type": "function"
    },
    {
      "inputs": [
        {
          "internalType": "address",
          "name": "newOwner",
          "type": "address"
        }
      ],
      "name": "transferOwnership",
      "outputs": [],
      "stateMutability": "nonpayable",
      "type": "function"
    },
    {
      "inputs": [
        {
          "internalType": "uint256",
          "name": "amount",
          "type": "uint256"
        }
      ],
      "name": "withdraw",
      "outputs": [],
      "stateMutability": "nonpayable",
      "type": "function"
    },
    {
      "stateMutability": "payable",
      "type": "receive"
    }
  ],
  "transactionHash": "0x377490ad577408cad1b72c3e990086756ca2ce47d63286f65712efb9bbf760f5",
  "args": [
    "Ethereum Nouns System",
    "eNouns",
    "0x8c583E6EF57E73f8A5057F266BBb713D3F690e47"
  ],
  "numDeployments": 1,
  "solcInputHash": "bbd9a653e7516b4e458dabe2ad1b4fce",
  "bytecode": "0x60a06040523480156200001157600080fd5b50604051620023e4380380620023e48339810160408190526200003491620001da565b82828282826000620000478382620002f6565b506001620000568282620002f6565b505050620000736200006d620000b760201b60201c565b620000bb565b600880546001600160a01b0319166001600160a01b03929092169190911790555050733671ae578e63fdf66ad4f3e12cc0c0d71ac7510c60805250620003c2915050565b3390565b600680546001600160a01b038381166001600160a01b0319831681179093556040519116919082907f8be0079c531659141344cd1fd0a4f28419497f9722a3daafe3b4186f6b6457e090600090a35050565b634e487b7160e01b600052604160045260246000fd5b600082601f8301126200013557600080fd5b81516001600160401b03808211156200015257620001526200010d565b604051601f8301601f19908116603f011681019082821181831017156200017d576200017d6200010d565b816040528381526020925086838588010111156200019a57600080fd5b600091505b83821015620001be57858201830151818301840152908201906200019f565b83821115620001d05760008385830101525b9695505050505050565b600080600060608486031215620001f057600080fd5b83516001600160401b03808211156200020857600080fd5b620002168783880162000123565b945060208601519150808211156200022d57600080fd5b506200023c8682870162000123565b604086015190935090506001600160a01b03811681146200025c57600080fd5b809150509250925092565b600181811c908216806200027c57607f821691505b6020821081036200029d57634e487b7160e01b600052602260045260246000fd5b50919050565b601f821115620002f157600081815260208120601f850160051c81016020861015620002cc5750805b601f850160051c820191505b81811015620002ed57828155600101620002d8565b5050505b505050565b81516001600160401b038111156200031257620003126200010d565b6200032a8162000323845462000267565b84620002a3565b602080601f831160018114620003625760008415620003495750858301515b600019600386901b1c1916600185901b178555620002ed565b600085815260208120601f198616915b82811015620003935788860151825594840194600190910190840162000372565b5085821015620003b25787850151600019600388901b60f8161c191681555b5050505050600190811b01905550565b608051612006620003de6000396000610dcd01526120066000f3fe6080604052600436106101395760003560e01c8063715018a6116100ab578063a22cb4651161006f578063a22cb46514610399578063b88d4fde146103b9578063c87b56dd146103d9578063e8a3d485146103f9578063e985e9c51461040e578063f2fde38b1461045757600080fd5b8063715018a61461031357806387a89ee6146103285780638da5cb5b146103465780639137c1a71461036457806395d89b411461038457600080fd5b806323b872dd116100fd57806323b872dd1461024a5780632e1a7d4d1461026a57806342842e0e1461028a5780635ad0ca9d146102aa5780636352211e146102ca57806370a08231146102ea57600080fd5b806301ffc9a71461017b57806306fdde03146101b0578063081812fc146101d2578063095ea7b31461020a57806313a69df91461022a57600080fd5b366101765761014c33610477565b610477565b6000036101745760078054610172913391906000610169836118fc565b91905055610503565b505b005b600080fd5b34801561018757600080fd5b5061019b61019636600461192b565b6105aa565b60405190151581526020015b60405180910390f35b3480156101bc57600080fd5b506101c56105bb565b6040516101a791906119a0565b3480156101de57600080fd5b506101f26101ed3660046119b3565b61064d565b6040516001600160a01b0390911681526020016101a7565b34801561021657600080fd5b506101746102253660046119e1565b6106e2565b34801561023657600080fd5b506101c5610245366004611a0d565b6107f7565b34801561025657600080fd5b50610174610265366004611a2a565b61089c565b34801561027657600080fd5b506101746102853660046119b3565b6108d1565b34801561029657600080fd5b506101746102a5366004611a2a565b61098b565b3480156102b657600080fd5b506101c56102c5366004611b18565b6109a6565b3480156102d657600080fd5b506101f26102e53660046119b3565b610a84565b3480156102f657600080fd5b50610305610147366004611a0d565b6040519081526020016101a7565b34801561031f57600080fd5b50610174610afb565b34801561033457600080fd5b506008546001600160a01b03166101f2565b34801561035257600080fd5b506006546001600160a01b03166101f2565b34801561037057600080fd5b5061017461037f366004611a0d565b610b31565b34801561039057600080fd5b506101c5610b7d565b3480156103a557600080fd5b506101746103b4366004611b61565b610b8c565b3480156103c557600080fd5b506101746103d4366004611b9f565b610b97565b3480156103e557600080fd5b506101c56103f43660046119b3565b610bc9565b34801561040557600080fd5b506101c5610c5c565b34801561041a57600080fd5b5061019b610429366004611c1f565b6001600160a01b03918216600090815260056020908152604080832093909416825291909152205460ff1690565b34801561046357600080fd5b50610174610472366004611a0d565b610cd3565b60006001600160a01b0382166104e75760405162461bcd60e51b815260206004820152602a60248201527f4552433732313a2062616c616e636520717565727920666f7220746865207a65604482015269726f206164647265737360b01b60648201526084015b60405180910390fd5b506001600160a01b031660009081526003602052604090205490565b60008061051761051285610d6e565b610e6b565b6000818152600960205260409020549091506001600160a01b03161561056f5760405162461bcd60e51b815260206004820152600d60248201526c19539bdd5b9cce9a5cdcdd5959609a1b60448201526064016104de565b6105798484610e77565b600090815260096020526040902080546001600160a01b0385166001600160a01b0319909116179055508092915050565b60006105b582610fb9565b92915050565b6060600080546105ca90611c4d565b80601f01602080910402602001604051908101604052809291908181526020018280546105f690611c4d565b80156106435780601f1061061857610100808354040283529160200191610643565b820191906000526020600020905b81548152906001019060200180831161062657829003601f168201915b5050505050905090565b6000818152600260205260408120546001600160a01b03166106c65760405162461bcd60e51b815260206004820152602c60248201527f4552433732313a20617070726f76656420717565727920666f72206e6f6e657860448201526b34b9ba32b73a103a37b5b2b760a11b60648201526084016104de565b506000908152600460205260409020546001600160a01b031690565b60006106ed82610a84565b9050806001600160a01b0316836001600160a01b03160361075a5760405162461bcd60e51b815260206004820152602160248201527f4552433732313a20617070726f76616c20746f2063757272656e74206f776e656044820152603960f91b60648201526084016104de565b336001600160a01b038216148061077657506107768133610429565b6107e85760405162461bcd60e51b815260206004820152603860248201527f4552433732313a20617070726f76652063616c6c6572206973206e6f74206f7760448201527f6e6572206e6f7220617070726f76656420666f7220616c6c000000000000000060648201526084016104de565b6107f28383611009565b505050565b604080516001600160a01b03831660208201526060916000910160408051601f1981840301815290829052600854630b35173560e41b83529092506001600160a01b03169063b3517350906108509084906004016119a0565b600060405180830381865afa15801561086d573d6000803e3d6000fd5b505050506040513d6000823e601f3d908101601f191682016040526108959190810190611ccc565b9392505050565b6001600160a01b0383166108c657600780546108c0918491906000610169836118fc565b50505050565b6108c0838383611077565b6006546001600160a01b031633146108fb5760405162461bcd60e51b81526004016104de90611d01565b604051600090339083908381818185875af1925050503d806000811461093d576040519150601f19603f3d011682016040523d82523d6000602084013e610942565b606091505b50509050806109875760405162461bcd60e51b815260206004820152601160248201527015da5d1a191c985dd85b0819985a5b1959607a1b60448201526064016104de565b5050565b6107f283838360405180602001604052806000815250610b97565b60085460408051634d0b849560e11b815290516060926001600160a01b031691639a17092a9160048083019260209291908290030181865afa1580156109f0573d6000803e3d6000fd5b505050506040513d601f19601f82011682018060405250810190610a149190611d36565b6001600160a01b031663a53344e7836040518263ffffffff1660e01b8152600401610a3f91906119a0565b600060405180830381865afa158015610a5c573d6000803e3d6000fd5b505050506040513d6000823e601f3d908101601f191682016040526105b59190810190611ccc565b6000818152600260205260408120546001600160a01b0316806105b55760405162461bcd60e51b815260206004820152602960248201527f4552433732313a206f776e657220717565727920666f72206e6f6e657869737460448201526832b73a103a37b5b2b760b91b60648201526084016104de565b6006546001600160a01b03163314610b255760405162461bcd60e51b81526004016104de90611d01565b610b2f600061116d565b565b6006546001600160a01b03163314610b5b5760405162461bcd60e51b81526004016104de90611d01565b600880546001600160a01b0319166001600160a01b0392909216919091179055565b6060600180546105ca90611c4d565b6109873383836111bf565b610ba1338361128d565b610bbd5760405162461bcd60e51b81526004016104de90611d53565b6108c084848484611383565b6060600080610bd7846113b6565b600854604051637833cb0b60e11b81529294509092506001600160a01b03169063f067961690610c0f90879086908690600401611da4565b600060405180830381865afa158015610c2c573d6000803e3d6000fd5b505050506040513d6000823e601f3d908101601f19168201604052610c549190810190611ccc565b949350505050565b60085460408051631c97e82760e21b815290516060926001600160a01b03169163725fa09c9160048083019260009291908290030181865afa158015610ca6573d6000803e3d6000fd5b505050506040513d6000823e601f3d908101601f19168201604052610cce9190810190611ccc565b905090565b6006546001600160a01b03163314610cfd5760405162461bcd60e51b81526004016104de90611d01565b6001600160a01b038116610d625760405162461bcd60e51b815260206004820152602660248201527f4f776e61626c653a206e6577206f776e657220697320746865207a65726f206160448201526564647265737360d01b60648201526084016104de565b610d6b8161116d565b50565b60408051600180825281830190925260609160009190602080830190803683370190505090508281600081518110610da857610da8611dd9565b6001600160a01b0392831660209182029290920101526040516332fe2d9b60e21b81527f00000000000000000000000000000000000000000000000000000000000000009091169063cbf8b66c90610e04908490600401611def565b600060405180830381865afa158015610e21573d6000803e3d6000fd5b505050506040513d6000823e601f3d908101601f19168201604052610e499190810190611e3c565b600081518110610e5b57610e5b611dd9565b6020026020010151915050919050565b600080610c5483611403565b6001600160a01b038216610ecd5760405162461bcd60e51b815260206004820181905260248201527f4552433732313a206d696e7420746f20746865207a65726f206164647265737360448201526064016104de565b6000818152600260205260409020546001600160a01b031615610f325760405162461bcd60e51b815260206004820152601c60248201527f4552433732313a20746f6b656e20616c7265616479206d696e7465640000000060448201526064016104de565b6001600160a01b0382166000908152600360205260408120805460019290610f5b908490611eff565b909155505060008181526002602052604080822080546001600160a01b0319166001600160a01b03861690811790915590518392907fddf252ad1be2c89b69c2b068fc378daa952ba7f163c4a11628f55a4df523b3ef908290a45050565b60006001600160e01b031982166380ac58cd60e01b1480610fea57506001600160e01b03198216635b5e139f60e01b145b806105b557506301ffc9a760e01b6001600160e01b03198316146105b5565b600081815260046020526040902080546001600160a01b0319166001600160a01b038416908117909155819061103e82610a84565b6001600160a01b03167f8c5be1e5ebec7d5bd14f71427d1e84f3dd0314c0f7b2291e5b200ac8c7c3b92560405160405180910390a45050565b60008061108383610a84565b9050846001600160a01b0316816001600160a01b0316146110d95760405162461bcd60e51b815260206004820152601060248201526f32a737bab7399d3737ba16b7bbb732b960811b60448201526064016104de565b60006110e485610d6e565b9050856001600160a01b0316600960006110fd84610e6b565b81526020810191909152604001600020546001600160a01b0316146111595760405162461bcd60e51b8152602060048201526012602482015271654e6f756e733a696e76616c69642d656e7360701b60448201526064016104de565b6111648686866115f8565b50509392505050565b600680546001600160a01b038381166001600160a01b0319831681179093556040519116919082907f8be0079c531659141344cd1fd0a4f28419497f9722a3daafe3b4186f6b6457e090600090a35050565b816001600160a01b0316836001600160a01b0316036112205760405162461bcd60e51b815260206004820152601960248201527f4552433732313a20617070726f766520746f2063616c6c65720000000000000060448201526064016104de565b6001600160a01b03838116600081815260056020908152604080832094871680845294825291829020805460ff191686151590811790915591519182527f17307eab39ab6107e8899845ad3d59bd9653f200f220920489ca2b5937696c31910160405180910390a3505050565b6000818152600260205260408120546001600160a01b03166113065760405162461bcd60e51b815260206004820152602c60248201527f4552433732313a206f70657261746f7220717565727920666f72206e6f6e657860448201526b34b9ba32b73a103a37b5b2b760a11b60648201526084016104de565b600061131183610a84565b9050806001600160a01b0316846001600160a01b0316148061135857506001600160a01b0380821660009081526005602090815260408083209388168352929052205460ff165b80610c545750836001600160a01b03166113718461064d565b6001600160a01b031614949350505050565b61138e848484611625565b61139a848484846117c1565b6108c05760405162461bcd60e51b81526004016104de90611f17565b6060806113c283610a84565b604080516001600160a01b0390921660208301520160408051601f19818403018152828201909152600382526203078360ec1b602083015294909350915050565b80516060906000908190849061141a816002611eff565b67ffffffffffffffff81111561143257611432611a6b565b6040519080825280601f01601f19166020018201604052801561145c576020820181803683370190505b509450600093508084036114a157600060f81b8560008151811061148257611482611dd9565b60200101906001600160f81b031916908160001a905350505050915091565b60001981015b8281815181106114b9576114b9611dd9565b01602001516001600160f81b031916601760f91b03611547578360f81b8682600101815181106114eb576114eb611dd9565b60200101906001600160f81b031916908160001a90535084611514846001840160ff88166118c2565b60408051602081019390935282015260600160405160208183030381529060405280519060200120945060009350611597565b60018401935082818151811061155f5761155f611dd9565b602001015160f81c60f81b86826001018151811061157f5761157f611dd9565b60200101906001600160f81b031916908160001a9053505b80156115a657600019016114a7565b50836115b783600060ff87166118c2565b6040805160208101939093528201526060016040516020818303038152906040528051906020012093508260f81b8560008151811061148257611482611dd9565b611602338261128d565b61161e5760405162461bcd60e51b81526004016104de90611d53565b6107f28383835b826001600160a01b031661163882610a84565b6001600160a01b03161461169c5760405162461bcd60e51b815260206004820152602560248201527f4552433732313a207472616e736665722066726f6d20696e636f72726563742060448201526437bbb732b960d91b60648201526084016104de565b6001600160a01b0382166116fe5760405162461bcd60e51b8152602060048201526024808201527f4552433732313a207472616e7366657220746f20746865207a65726f206164646044820152637265737360e01b60648201526084016104de565b611709600082611009565b6001600160a01b0383166000908152600360205260408120805460019290611732908490611f69565b90915550506001600160a01b0382166000908152600360205260408120805460019290611760908490611eff565b909155505060008181526002602052604080822080546001600160a01b0319166001600160a01b0386811691821790925591518493918716917fddf252ad1be2c89b69c2b068fc378daa952ba7f163c4a11628f55a4df523b3ef91a4505050565b60006001600160a01b0384163b156118b757604051630a85bd0160e11b81526001600160a01b0385169063150b7a0290611805903390899088908890600401611f80565b6020604051808303816000875af1925050508015611840575060408051601f3d908101601f1916820190925261183d91810190611fb3565b60015b61189d573d80801561186e576040519150601f19603f3d011682016040523d82523d6000602084013e611873565b606091505b5080516000036118955760405162461bcd60e51b81526004016104de90611f17565b805181602001fd5b6001600160e01b031916630a85bd0160e11b149050610c54565b506001949350505050565b82516000906118d18385611eff565b11156118dc57600080fd5b5091016020012090565b634e487b7160e01b600052601160045260246000fd5b60006001820161190e5761190e6118e6565b5060010190565b6001600160e01b031981168114610d6b57600080fd5b60006020828403121561193d57600080fd5b813561089581611915565b60005b8381101561196357818101518382015260200161194b565b838111156108c05750506000910152565b6000815180845261198c816020860160208601611948565b601f01601f19169290920160200192915050565b6020815260006108956020830184611974565b6000602082840312156119c557600080fd5b5035919050565b6001600160a01b0381168114610d6b57600080fd5b600080604083850312156119f457600080fd5b82356119ff816119cc565b946020939093013593505050565b600060208284031215611a1f57600080fd5b8135610895816119cc565b600080600060608486031215611a3f57600080fd5b8335611a4a816119cc565b92506020840135611a5a816119cc565b929592945050506040919091013590565b634e487b7160e01b600052604160045260246000fd5b604051601f8201601f1916810167ffffffffffffffff81118282101715611aaa57611aaa611a6b565b604052919050565b600067ffffffffffffffff821115611acc57611acc611a6b565b50601f01601f191660200190565b6000611aed611ae884611ab2565b611a81565b9050828152838383011115611b0157600080fd5b828260208301376000602084830101529392505050565b600060208284031215611b2a57600080fd5b813567ffffffffffffffff811115611b4157600080fd5b8201601f81018413611b5257600080fd5b610c5484823560208401611ada565b60008060408385031215611b7457600080fd5b8235611b7f816119cc565b915060208301358015158114611b9457600080fd5b809150509250929050565b60008060008060808587031215611bb557600080fd5b8435611bc0816119cc565b93506020850135611bd0816119cc565b925060408501359150606085013567ffffffffffffffff811115611bf357600080fd5b8501601f81018713611c0457600080fd5b611c1387823560208401611ada565b91505092959194509250565b60008060408385031215611c3257600080fd5b8235611c3d816119cc565b91506020830135611b94816119cc565b600181811c90821680611c6157607f821691505b602082108103611c8157634e487b7160e01b600052602260045260246000fd5b50919050565b600082601f830112611c9857600080fd5b8151611ca6611ae882611ab2565b818152846020838601011115611cbb57600080fd5b610c54826020830160208701611948565b600060208284031215611cde57600080fd5b815167ffffffffffffffff811115611cf557600080fd5b610c5484828501611c87565b6020808252818101527f4f776e61626c653a2063616c6c6572206973206e6f7420746865206f776e6572604082015260600190565b600060208284031215611d4857600080fd5b8151610895816119cc565b60208082526031908201527f4552433732313a207472616e736665722063616c6c6572206973206e6f74206f6040820152701ddb995c881b9bdc88185c1c1c9bdd9959607a1b606082015260800190565b838152606060208201526000611dbd6060830185611974565b8281036040840152611dcf8185611974565b9695505050505050565b634e487b7160e01b600052603260045260246000fd5b6020808252825182820181905260009190848201906040850190845b81811015611e305783516001600160a01b031683529284019291840191600101611e0b565b50909695505050505050565b60006020808385031215611e4f57600080fd5b825167ffffffffffffffff80821115611e6757600080fd5b818501915085601f830112611e7b57600080fd5b815181811115611e8d57611e8d611a6b565b8060051b611e9c858201611a81565b9182528381018501918581019089841115611eb657600080fd5b86860192505b83831015611ef257825185811115611ed45760008081fd5b611ee28b89838a0101611c87565b8352509186019190860190611ebc565b9998505050505050505050565b60008219821115611f1257611f126118e6565b500190565b60208082526032908201527f4552433732313a207472616e7366657220746f206e6f6e20455243373231526560408201527131b2b4bb32b91034b6b83632b6b2b73a32b960711b606082015260800190565b600082821015611f7b57611f7b6118e6565b500390565b6001600160a01b0385811682528416602082015260408101839052608060608201819052600090611dcf90830184611974565b600060208284031215611fc557600080fd5b81516108958161191556fea2646970667358221220a253666edbf34efae3544049804efa0491d109aa23bb76021453ef3a55f59b4e64736f6c634300080f0033",
  "devdoc": {
    "author": "Kames Geraghty",
    "kind": "dev",
    "methods": {
      "approve(address,uint256)": {
        "details": "See {IERC721-approve}."
      },
      "balanceOf(address)": {
        "details": "See {IERC721-balanceOf}."
      },
      "constructor": {
        "params": {
          "_erc721Storage_": "address - Metadata instance",
          "name_": "string - Name of ERC721 token",
          "symbol_": "string - Symbol of ERC721 token"
        }
      },
      "getApproved(uint256)": {
        "details": "See {IERC721-getApproved}."
      },
      "getERC721Storage()": {
        "returns": {
          "_0": "storage Metadata"
        }
      },
      "isApprovedForAll(address,address)": {
        "details": "See {IERC721-isApprovedForAll}."
      },
      "name()": {
        "details": "See {IERC721Metadata-name}."
      },
      "owner()": {
        "details": "Returns the address of the current owner."
      },
      "ownerOf(uint256)": {
        "details": "See {IERC721-ownerOf}."
      },
      "renounceOwnership()": {
        "details": "Leaves the contract without owner. It will not be possible to call `onlyOwner` functions anymore. Can only be called by the current owner. NOTE: Renouncing ownership will leave the contract without an owner, thereby removing any functionality that is only available to the owner."
      },
      "safeTransferFrom(address,address,uint256)": {
        "details": "See {IERC721-safeTransferFrom}."
      },
      "safeTransferFrom(address,address,uint256,bytes)": {
        "details": "See {IERC721-safeTransferFrom}."
      },
      "setApprovalForAll(address,bool)": {
        "details": "See {IERC721-setApprovalForAll}."
      },
      "setStorage(address)": {
        "params": {
          "erc721Storage": "address"
        }
      },
      "supportsInterface(bytes4)": {
        "details": "See {IERC165-supportsInterface}."
      },
      "symbol()": {
        "details": "See {IERC721Metadata-symbol}."
      },
      "tokenURI(uint256)": {
        "params": {
          "tokenId": "uint256"
        },
        "returns": {
          "_0": "metadata string"
        }
      },
      "transferFrom(address,address,uint256)": {
        "details": "See {IERC721-transferFrom}."
      },
      "transferOwnership(address)": {
        "details": "Transfers ownership of the contract to a new account (`newOwner`). Can only be called by the current owner."
      }
    },
    "title": "eNouns",
    "version": 1
  },
  "userdoc": {
    "kind": "user",
    "methods": {
      "constructor": {
        "notice": "ERC721K Construction"
      },
      "getERC721Storage()": {
        "notice": "Get Metadata instance"
      },
      "preview(address)": {
        "notice": "Given an address, construct a base64 encoded SVG image."
      },
      "setStorage(address)": {
        "notice": "Set Metadata instance"
      },
      "tokenURI(uint256)": {
        "notice": "Generate token URI"
      }
    },
    "notice": "Nouns and Ethereum Name System combo; PFP generated from ENS domain bytes32 node.",
    "version": 1
  },
  "storageLayout": {
    "storage": [
      {
        "astId": 130,
        "contract": "contracts/ENouns.sol:ENouns",
        "label": "_name",
        "offset": 0,
        "slot": "0",
        "type": "t_string_storage"
      },
      {
        "astId": 132,
        "contract": "contracts/ENouns.sol:ENouns",
        "label": "_symbol",
        "offset": 0,
        "slot": "1",
        "type": "t_string_storage"
      },
      {
        "astId": 136,
        "contract": "contracts/ENouns.sol:ENouns",
        "label": "_owners",
        "offset": 0,
        "slot": "2",
        "type": "t_mapping(t_uint256,t_address)"
      },
      {
        "astId": 140,
        "contract": "contracts/ENouns.sol:ENouns",
        "label": "_balances",
        "offset": 0,
        "slot": "3",
        "type": "t_mapping(t_address,t_uint256)"
      },
      {
        "astId": 144,
        "contract": "contracts/ENouns.sol:ENouns",
        "label": "_tokenApprovals",
        "offset": 0,
        "slot": "4",
        "type": "t_mapping(t_uint256,t_address)"
      },
      {
        "astId": 150,
        "contract": "contracts/ENouns.sol:ENouns",
        "label": "_operatorApprovals",
        "offset": 0,
        "slot": "5",
        "type": "t_mapping(t_address,t_mapping(t_address,t_bool))"
      },
      {
        "astId": 7,
        "contract": "contracts/ENouns.sol:ENouns",
        "label": "_owner",
        "offset": 0,
        "slot": "6",
        "type": "t_address"
      },
      {
        "astId": 2481,
        "contract": "contracts/ENouns.sol:ENouns",
        "label": "_idCounter",
        "offset": 0,
        "slot": "7",
        "type": "t_uint256"
      },
      {
        "astId": 2483,
        "contract": "contracts/ENouns.sol:ENouns",
        "label": "_erc721Storage",
        "offset": 0,
        "slot": "8",
        "type": "t_address"
      },
      {
        "astId": 1832,
        "contract": "contracts/ENouns.sol:ENouns",
        "label": "_ensReverseRecordsMap",
        "offset": 0,
        "slot": "9",
        "type": "t_mapping(t_bytes32,t_address)"
      }
    ],
    "types": {
      "t_address": {
        "encoding": "inplace",
        "label": "address",
        "numberOfBytes": "20"
      },
      "t_bool": {
        "encoding": "inplace",
        "label": "bool",
        "numberOfBytes": "1"
      },
      "t_bytes32": {
        "encoding": "inplace",
        "label": "bytes32",
        "numberOfBytes": "32"
      },
      "t_mapping(t_address,t_bool)": {
        "encoding": "mapping",
        "key": "t_address",
        "label": "mapping(address => bool)",
        "numberOfBytes": "32",
        "value": "t_bool"
      },
      "t_mapping(t_address,t_mapping(t_address,t_bool))": {
        "encoding": "mapping",
        "key": "t_address",
        "label": "mapping(address => mapping(address => bool))",
        "numberOfBytes": "32",
        "value": "t_mapping(t_address,t_bool)"
      },
      "t_mapping(t_address,t_uint256)": {
        "encoding": "mapping",
        "key": "t_address",
        "label": "mapping(address => uint256)",
        "numberOfBytes": "32",
        "value": "t_uint256"
      },
      "t_mapping(t_bytes32,t_address)": {
        "encoding": "mapping",
        "key": "t_bytes32",
        "label": "mapping(bytes32 => address)",
        "numberOfBytes": "32",
        "value": "t_address"
      },
      "t_mapping(t_uint256,t_address)": {
        "encoding": "mapping",
        "key": "t_uint256",
        "label": "mapping(uint256 => address)",
        "numberOfBytes": "32",
        "value": "t_address"
      },
      "t_string_storage": {
        "encoding": "bytes",
        "label": "string",
        "numberOfBytes": "32"
      },
      "t_uint256": {
        "encoding": "inplace",
        "label": "uint256",
        "numberOfBytes": "32"
      }
    }
  }
}