{
  "address": "0xd9DE451856a56f5058DbFAc5e4ADa9C6ff785dDe",
  "abi": [
    {
      "inputs": [
        {
          "internalType": "address",
          "name": "_svgRender_",
          "type": "address"
        },
        {
          "internalType": "address",
          "name": "_traitsFetch_",
          "type": "address"
        },
        {
          "components": [
            {
              "internalType": "string",
              "name": "name",
              "type": "string"
            },
            {
              "internalType": "string",
              "name": "description",
              "type": "string"
            },
            {
              "internalType": "string",
              "name": "image",
              "type": "string"
            },
            {
              "internalType": "string",
              "name": "external_link",
              "type": "string"
            },
            {
              "internalType": "string",
              "name": "seller_fee_basis_points",
              "type": "string"
            },
            {
              "internalType": "string",
              "name": "fee_recipient",
              "type": "string"
            }
          ],
          "internalType": "struct ERC721Storage.ContractURI",
          "name": "_contractURI_",
          "type": "tuple"
        }
      ],
      "stateMutability": "nonpayable",
      "type": "constructor"
    },
    {
      "anonymous": false,
      "inputs": [
        {
          "indexed": true,
          "internalType": "address",
          "name": "previousOwner",
          "type": "address"
        },
        {
          "indexed": true,
          "internalType": "address",
          "name": "newOwner",
          "type": "address"
        }
      ],
      "name": "OwnershipTransferred",
      "type": "event"
    },
    {
      "inputs": [],
      "name": "constructContractURI",
      "outputs": [
        {
          "internalType": "string",
          "name": "uri",
          "type": "string"
        }
      ],
      "stateMutability": "view",
      "type": "function"
    },
    {
      "inputs": [
        {
          "internalType": "uint256",
          "name": "tokenId",
          "type": "uint256"
        },
        {
          "internalType": "bytes",
          "name": "input0",
          "type": "bytes"
        },
        {
          "internalType": "bytes",
          "name": "input1",
          "type": "bytes"
        }
      ],
      "name": "constructTokenURI",
      "outputs": [
        {
          "internalType": "string",
          "name": "uri",
          "type": "string"
        }
      ],
      "stateMutability": "view",
      "type": "function"
    },
    {
      "inputs": [],
      "name": "getSvgRender",
      "outputs": [
        {
          "internalType": "address",
          "name": "",
          "type": "address"
        }
      ],
      "stateMutability": "view",
      "type": "function"
    },
    {
      "inputs": [],
      "name": "getTraitsFetch",
      "outputs": [
        {
          "internalType": "address",
          "name": "",
          "type": "address"
        }
      ],
      "stateMutability": "view",
      "type": "function"
    },
    {
      "inputs": [],
      "name": "owner",
      "outputs": [
        {
          "internalType": "address",
          "name": "",
          "type": "address"
        }
      ],
      "stateMutability": "view",
      "type": "function"
    },
    {
      "inputs": [
        {
          "internalType": "bytes",
          "name": "input",
          "type": "bytes"
        }
      ],
      "name": "preview",
      "outputs": [
        {
          "internalType": "string",
          "name": "",
          "type": "string"
        }
      ],
      "stateMutability": "view",
      "type": "function"
    },
    {
      "inputs": [],
      "name": "renounceOwnership",
      "outputs": [],
      "stateMutability": "nonpayable",
      "type": "function"
    },
    {
      "inputs": [
        {
          "internalType": "address",
          "name": "newOwner",
          "type": "address"
        }
      ],
      "name": "transferOwnership",
      "outputs": [],
      "stateMutability": "nonpayable",
      "type": "function"
    }
  ],
  "transactionHash": "0x7e83dc6a88eedd0c08ba2bcf028b228d19e371840201616bd9b07aef1d6faff9",
  "args": [
    "0xE5D37a2eBE3e917Db52A35f248576e1EE4C886Fd",
    "0xE4C47040B8e535ebaDB6C4E94b95653e4f6dBAbd",
    {
      "name": "ENounsRender",
      "description": "ENounsRender",
      "image": "https://raw.githubusercontent.com/ENounsRender/ENounsRender/master/logo.png",
      "external_link": "https://ENounsRender.com",
      "seller_fee_basis_points": "0",
      "fee_recipient": "0x0000000000000000000000000000000000000000"
    }
  ],
  "numDeployments": 1,
  "solcInputHash": "82c47bf93137818b4ac6f7666c8827c0",
  "bytecode": "0x60806040523480156200001157600080fd5b506040516200149c3803806200149c833981016040819052620000349162000280565b82828262000042336200010a565b600180546001600160a01b038086166001600160a01b03199283161790925560028054928516929091169190911790558051819060039081906200008790826200046e565b50602082015160018201906200009e90826200046e565b5060408201516002820190620000b590826200046e565b5060608201516003820190620000cc90826200046e565b5060808201516004820190620000e390826200046e565b5060a08201516005820190620000fa90826200046e565b509050505050505050506200053a565b600080546001600160a01b038381166001600160a01b0319831681178455604051919092169283917f8be0079c531659141344cd1fd0a4f28419497f9722a3daafe3b4186f6b6457e09190a35050565b80516001600160a01b03811681146200017257600080fd5b919050565b634e487b7160e01b600052604160045260246000fd5b60405160c081016001600160401b0381118282101715620001b257620001b262000177565b60405290565b604051601f8201601f191681016001600160401b0381118282101715620001e357620001e362000177565b604052919050565b600082601f830112620001fd57600080fd5b81516001600160401b0381111562000219576200021962000177565b60206200022f601f8301601f19168201620001b8565b82815285828487010111156200024457600080fd5b60005b838110156200026457858101830151828201840152820162000247565b83811115620002765760008385840101525b5095945050505050565b6000806000606084860312156200029657600080fd5b620002a1846200015a565b9250620002b1602085016200015a565b60408501519092506001600160401b0380821115620002cf57600080fd5b9085019060c08288031215620002e457600080fd5b620002ee6200018d565b825182811115620002fe57600080fd5b6200030c89828601620001eb565b8252506020830151828111156200032257600080fd5b6200033089828601620001eb565b6020830152506040830151828111156200034957600080fd5b6200035789828601620001eb565b6040830152506060830151828111156200037057600080fd5b6200037e89828601620001eb565b6060830152506080830151828111156200039757600080fd5b620003a589828601620001eb565b60808301525060a083015182811115620003be57600080fd5b620003cc89828601620001eb565b60a0830152508093505050509250925092565b600181811c90821680620003f457607f821691505b6020821081036200041557634e487b7160e01b600052602260045260246000fd5b50919050565b601f8211156200046957600081815260208120601f850160051c81016020861015620004445750805b601f850160051c820191505b81811015620004655782815560010162000450565b5050505b505050565b81516001600160401b038111156200048a576200048a62000177565b620004a2816200049b8454620003df565b846200041b565b602080601f831160018114620004da5760008415620004c15750858301515b600019600386901b1c1916600185901b17855562000465565b600085815260208120601f198616915b828110156200050b57888601518255948401946001909101908401620004ea565b50858210156200052a5787850151600019600388901b60f8161c191681555b5050505050600190811b01905550565b610f52806200054a6000396000f3fe608060405234801561001057600080fd5b50600436106100885760003560e01c8063a3f22a201161005b578063a3f22a20146100eb578063b3517350146100fc578063f06796161461010f578063f2fde38b1461012257600080fd5b8063715018a61461008d578063725fa09c146100975780638da5cb5b146100b55780639a17092a146100da575b600080fd5b610095610135565b005b61009f6101a0565b6040516100ac91906107f9565b60405180910390f35b6000546001600160a01b03165b6040516001600160a01b0390911681526020016100ac565b6001546001600160a01b03166100c2565b6002546001600160a01b03166100c2565b61009f61010a3660046108d8565b610200565b61009f61011d36600461090d565b61027c565b61009561013036600461097a565b6103c8565b6000546001600160a01b031633146101945760405162461bcd60e51b815260206004820181905260248201527f4f776e61626c653a2063616c6c6572206973206e6f7420746865206f776e657260448201526064015b60405180910390fd5b61019e6000610493565b565b6040516060906101dc906101c890600390600490600590600690600790600890602001610a40565b6040516020818303038152906040526104e3565b6040516020016101ec9190610bc8565b604051602081830303815290604052905090565b6001546040516318b6fb0f60e11b81526060916001600160a01b03169063316df61e906102319085906004016107f9565b600060405180830381865afa15801561024e573d6000803e3d6000fd5b505050506040513d6000823e601f3d908101601f191682016040526102769190810190610c0d565b92915050565b6001546040516318b6fb0f60e11b81526060916000916001600160a01b039091169063316df61e906102b29087906004016107f9565b600060405180830381865afa1580156102cf573d6000803e3d6000fd5b505050506040513d6000823e601f3d908101601f191682016040526102f79190810190610c0d565b60025460405163f6559a6b60e01b81529192506000916001600160a01b039091169063f6559a6b9061032d9087906004016107f9565b600060405180830381865afa15801561034a573d6000803e3d6000fd5b505050506040513d6000823e601f3d908101601f191682016040526103729190810190610c0d565b905061039e61038087610648565b61038988610679565b84846040516020016101c89493929190610c84565b6040516020016103ae9190610bc8565b604051602081830303815290604052925050509392505050565b6000546001600160a01b031633146104225760405162461bcd60e51b815260206004820181905260248201527f4f776e61626c653a2063616c6c6572206973206e6f7420746865206f776e6572604482015260640161018b565b6001600160a01b0381166104875760405162461bcd60e51b815260206004820152602660248201527f4f776e61626c653a206e6577206f776e657220697320746865207a65726f206160448201526564647265737360d01b606482015260840161018b565b61049081610493565b50565b600080546001600160a01b038381166001600160a01b0319831681178455604051919092169283917f8be0079c531659141344cd1fd0a4f28419497f9722a3daafe3b4186f6b6457e09190a35050565b6060815160000361050257505060408051602081019091526000815290565b6000604051806060016040528060408152602001610edd60409139905060006003845160026105319190610d8b565b61053b9190610db9565b610546906004610dcd565b90506000610555826020610d8b565b67ffffffffffffffff81111561056d5761056d610813565b6040519080825280601f01601f191660200182016040528015610597576020820181803683370190505b509050818152600183018586518101602084015b81831015610603576003830192508251603f8160121c168501518253600182019150603f81600c1c168501518253600182019150603f8160061c168501518253600182019150603f81168501518253506001016105ab565b60038951066001811461061d576002811461062e5761063a565b613d3d60f01b60011983015261063a565b603d60f81b6000198301525b509398975050505050505050565b606061065382610694565b6040516020016106639190610dec565b6040516020818303038152906040529050919050565b606061068482610694565b6040516020016106639190610e1c565b6060816000036106bb5750506040805180820190915260018152600360fc1b602082015290565b8160005b81156106e557806106cf81610e82565b91506106de9050600a83610db9565b91506106bf565b60008167ffffffffffffffff81111561070057610700610813565b6040519080825280601f01601f19166020018201604052801561072a576020820181803683370190505b5090505b84156107955761073f600183610e9b565b915061074c600a86610eb2565b610757906030610d8b565b60f81b81838151811061076c5761076c610ec6565b60200101906001600160f81b031916908160001a90535061078e600a86610db9565b945061072e565b949350505050565b60005b838110156107b85781810151838201526020016107a0565b838111156107c7576000848401525b50505050565b600081518084526107e581602086016020860161079d565b601f01601f19169290920160200192915050565b60208152600061080c60208301846107cd565b9392505050565b634e487b7160e01b600052604160045260246000fd5b604051601f8201601f1916810167ffffffffffffffff8111828210171561085257610852610813565b604052919050565b600067ffffffffffffffff82111561087457610874610813565b50601f01601f191660200190565b600082601f83011261089357600080fd5b81356108a66108a18261085a565b610829565b8181528460208386010111156108bb57600080fd5b816020850160208301376000918101602001919091529392505050565b6000602082840312156108ea57600080fd5b813567ffffffffffffffff81111561090157600080fd5b61079584828501610882565b60008060006060848603121561092257600080fd5b83359250602084013567ffffffffffffffff8082111561094157600080fd5b61094d87838801610882565b9350604086013591508082111561096357600080fd5b5061097086828701610882565b9150509250925092565b60006020828403121561098c57600080fd5b81356001600160a01b038116811461080c57600080fd5b8054600090600181811c90808316806109bd57607f831692505b602080841082036109de57634e487b7160e01b600052602260045260246000fd5b8180156109f25760018114610a0757610a34565b60ff1986168952841515850289019650610a34565b60008881526020902060005b86811015610a2c5781548b820152908501908301610a13565b505084890196505b50505050505092915050565b673d913730b6b2911d60c11b8152601160f91b60088201526000610a6760098301896109a3565b61088b60f21b81526002610a8d8183016d113232b9b1b934b83a34b7b7111d60911b9052565b601160f91b6010830152610aa4601183018a6109a3565b61088b60f21b81529150671134b6b0b3b2911d60c11b82820152601160f91b600a830152610ad5600b8301896109a3565b61088b60f21b815291506f1132bc3a32b93730b62fb634b735911d60811b82820152601160f91b6012830152610b0e60138301886109a3565b61088b60f21b815291507f2273656c6c65725f6665655f62617369735f706f696e7473223a00000000000082820152601160f91b601c830152610b54601d8301876109a3565b61088b60f21b815291506f113332b2afb932b1b4b834b2b73a111d60811b82820152601160f91b6012830152610b8d60138301866109a3565b601160f91b8152607d60f81b6001820152019998505050505050505050565b60008151610bbe81856020860161079d565b9290920192915050565b7f646174613a6170706c69636174696f6e2f6a736f6e3b6261736536342c000000815260008251610c0081601d85016020870161079d565b91909101601d0192915050565b600060208284031215610c1f57600080fd5b815167ffffffffffffffff811115610c3657600080fd5b8201601f81018413610c4757600080fd5b8051610c556108a18261085a565b818152856020838501011115610c6a57600080fd5b610c7b82602083016020860161079d565b95945050505050565b673d913730b6b2911d60c11b8152601160f91b60088201528451600090610cb2816009850160208a0161079d565b61088b60f21b6009918401918201526d113232b9b1b934b83a34b7b7111d60911b600b820152610ce860198201601160f91b9052565b610cf5601a820187610bac565b61088b60f21b81529050671134b6b0b3b2911d60c11b6002820152601160f91b600a820152610d27600b820186610bac565b61088b60f21b815290506e2261747472696275746573223a205b60881b6002820152610d566011820185610bac565b605d60f81b8152607d60f81b6001820152600201979650505050505050565b634e487b7160e01b600052601160045260246000fd5b60008219821115610d9e57610d9e610d75565b500190565b634e487b7160e01b600052601260045260246000fd5b600082610dc857610dc8610da3565b500490565b6000816000190483118215151615610de757610de7610d75565b500290565b67654e6f756e73202360c01b815260008251610e0f81600885016020870161079d565b9190910160080192915050565b674d656d626572202360c01b815260008251610e3f81600885016020870161079d565b7f206f662074686520457468657265756d204e6f756e2053797374656d206172746008939091019283015250651031b63ab11760d11b6028820152602e01919050565b600060018201610e9457610e94610d75565b5060010190565b600082821015610ead57610ead610d75565b500390565b600082610ec157610ec1610da3565b500690565b634e487b7160e01b600052603260045260246000fdfe4142434445464748494a4b4c4d4e4f505152535455565758595a6162636465666768696a6b6c6d6e6f707172737475767778797a303132333435363738392b2fa2646970667358221220abd6f58f76f72e658cb8327a486f95028dc89feaebb3d4b668a464a6e358fc0664736f6c634300080f0033",
  "devdoc": {
    "author": "Kames Geraghty",
    "kind": "dev",
    "methods": {
      "owner()": {
        "details": "Returns the address of the current owner."
      },
      "renounceOwnership()": {
        "details": "Leaves the contract without owner. It will not be possible to call `onlyOwner` functions anymore. Can only be called by the current owner. NOTE: Renouncing ownership will leave the contract without an owner, thereby removing any functionality that is only available to the owner."
      },
      "transferOwnership(address)": {
        "details": "Transfers ownership of the contract to a new account (`newOwner`). Can only be called by the current owner."
      }
    },
    "title": "ENounsStorage",
    "version": 1
  },
  "userdoc": {
    "kind": "user",
    "methods": {
      "preview(bytes)": {
        "notice": "Given an address, construct a base64 encoded SVG image."
      }
    },
    "version": 1
  },
  "storageLayout": {
    "storage": [
      {
        "astId": 7,
        "contract": "contracts/ENounsStorage.sol:ENounsStorage",
        "label": "_owner",
        "offset": 0,
        "slot": "0",
        "type": "t_address"
      },
      {
        "astId": 3049,
        "contract": "contracts/ENounsStorage.sol:ENounsStorage",
        "label": "_svgRender",
        "offset": 0,
        "slot": "1",
        "type": "t_address"
      },
      {
        "astId": 3051,
        "contract": "contracts/ENounsStorage.sol:ENounsStorage",
        "label": "_traitsFetch",
        "offset": 0,
        "slot": "2",
        "type": "t_address"
      },
      {
        "astId": 3054,
        "contract": "contracts/ENounsStorage.sol:ENounsStorage",
        "label": "_contractURI",
        "offset": 0,
        "slot": "3",
        "type": "t_struct(ContractURI)3067_storage"
      }
    ],
    "types": {
      "t_address": {
        "encoding": "inplace",
        "label": "address",
        "numberOfBytes": "20"
      },
      "t_string_storage": {
        "encoding": "bytes",
        "label": "string",
        "numberOfBytes": "32"
      },
      "t_struct(ContractURI)3067_storage": {
        "encoding": "inplace",
        "label": "struct ERC721Storage.ContractURI",
        "members": [
          {
            "astId": 3056,
            "contract": "contracts/ENounsStorage.sol:ENounsStorage",
            "label": "name",
            "offset": 0,
            "slot": "0",
            "type": "t_string_storage"
          },
          {
            "astId": 3058,
            "contract": "contracts/ENounsStorage.sol:ENounsStorage",
            "label": "description",
            "offset": 0,
            "slot": "1",
            "type": "t_string_storage"
          },
          {
            "astId": 3060,
            "contract": "contracts/ENounsStorage.sol:ENounsStorage",
            "label": "image",
            "offset": 0,
            "slot": "2",
            "type": "t_string_storage"
          },
          {
            "astId": 3062,
            "contract": "contracts/ENounsStorage.sol:ENounsStorage",
            "label": "external_link",
            "offset": 0,
            "slot": "3",
            "type": "t_string_storage"
          },
          {
            "astId": 3064,
            "contract": "contracts/ENounsStorage.sol:ENounsStorage",
            "label": "seller_fee_basis_points",
            "offset": 0,
            "slot": "4",
            "type": "t_string_storage"
          },
          {
            "astId": 3066,
            "contract": "contracts/ENounsStorage.sol:ENounsStorage",
            "label": "fee_recipient",
            "offset": 0,
            "slot": "5",
            "type": "t_string_storage"
          }
        ],
        "numberOfBytes": "192"
      }
    }
  }
}