{
  "address": "0x0156a3d673EfDdDab6A13d09dD311036554fA6BF",
  "abi": [
    {
      "inputs": [
        {
          "internalType": "string",
          "name": "name_",
          "type": "string"
        },
        {
          "internalType": "string",
          "name": "symbol_",
          "type": "string"
        },
        {
          "internalType": "address",
          "name": "_erc721Storage_",
          "type": "address"
        }
      ],
      "stateMutability": "nonpayable",
      "type": "constructor"
    },
    {
      "anonymous": false,
      "inputs": [
        {
          "indexed": true,
          "internalType": "address",
          "name": "owner",
          "type": "address"
        },
        {
          "indexed": true,
          "internalType": "address",
          "name": "approved",
          "type": "address"
        },
        {
          "indexed": true,
          "internalType": "uint256",
          "name": "tokenId",
          "type": "uint256"
        }
      ],
      "name": "Approval",
      "type": "event"
    },
    {
      "anonymous": false,
      "inputs": [
        {
          "indexed": true,
          "internalType": "address",
          "name": "owner",
          "type": "address"
        },
        {
          "indexed": true,
          "internalType": "address",
          "name": "operator",
          "type": "address"
        },
        {
          "indexed": false,
          "internalType": "bool",
          "name": "approved",
          "type": "bool"
        }
      ],
      "name": "ApprovalForAll",
      "type": "event"
    },
    {
      "anonymous": false,
      "inputs": [
        {
          "indexed": true,
          "internalType": "address",
          "name": "previousOwner",
          "type": "address"
        },
        {
          "indexed": true,
          "internalType": "address",
          "name": "newOwner",
          "type": "address"
        }
      ],
      "name": "OwnershipTransferred",
      "type": "event"
    },
    {
      "anonymous": false,
      "inputs": [
        {
          "indexed": true,
          "internalType": "address",
          "name": "from",
          "type": "address"
        },
        {
          "indexed": true,
          "internalType": "address",
          "name": "to",
          "type": "address"
        },
        {
          "indexed": true,
          "internalType": "uint256",
          "name": "tokenId",
          "type": "uint256"
        }
      ],
      "name": "Transfer",
      "type": "event"
    },
    {
      "inputs": [
        {
          "internalType": "address",
          "name": "to",
          "type": "address"
        },
        {
          "internalType": "uint256",
          "name": "tokenId",
          "type": "uint256"
        }
      ],
      "name": "approve",
      "outputs": [],
      "stateMutability": "nonpayable",
      "type": "function"
    },
    {
      "inputs": [
        {
          "internalType": "address",
          "name": "owner",
          "type": "address"
        }
      ],
      "name": "balanceOf",
      "outputs": [
        {
          "internalType": "uint256",
          "name": "",
          "type": "uint256"
        }
      ],
      "stateMutability": "view",
      "type": "function"
    },
    {
      "inputs": [],
      "name": "claim",
      "outputs": [],
      "stateMutability": "payable",
      "type": "function"
    },
    {
      "inputs": [],
      "name": "contractURI",
      "outputs": [
        {
          "internalType": "string",
          "name": "",
          "type": "string"
        }
      ],
      "stateMutability": "view",
      "type": "function"
    },
    {
      "inputs": [
        {
          "internalType": "uint256",
          "name": "tokenId",
          "type": "uint256"
        }
      ],
      "name": "getApproved",
      "outputs": [
        {
          "internalType": "address",
          "name": "",
          "type": "address"
        }
      ],
      "stateMutability": "view",
      "type": "function"
    },
    {
      "inputs": [],
      "name": "getERC721Storage",
      "outputs": [
        {
          "internalType": "address",
          "name": "",
          "type": "address"
        }
      ],
      "stateMutability": "view",
      "type": "function"
    },
    {
      "inputs": [
        {
          "internalType": "address",
          "name": "user",
          "type": "address"
        }
      ],
      "name": "getId",
      "outputs": [
        {
          "internalType": "uint256",
          "name": "",
          "type": "uint256"
        }
      ],
      "stateMutability": "view",
      "type": "function"
    },
    {
      "inputs": [
        {
          "internalType": "address",
          "name": "owner",
          "type": "address"
        },
        {
          "internalType": "address",
          "name": "operator",
          "type": "address"
        }
      ],
      "name": "isApprovedForAll",
      "outputs": [
        {
          "internalType": "bool",
          "name": "",
          "type": "bool"
        }
      ],
      "stateMutability": "view",
      "type": "function"
    },
    {
      "inputs": [
        {
          "internalType": "address",
          "name": "user",
          "type": "address"
        }
      ],
      "name": "isOwner",
      "outputs": [
        {
          "internalType": "bool",
          "name": "",
          "type": "bool"
        }
      ],
      "stateMutability": "view",
      "type": "function"
    },
    {
      "inputs": [],
      "name": "name",
      "outputs": [
        {
          "internalType": "string",
          "name": "",
          "type": "string"
        }
      ],
      "stateMutability": "view",
      "type": "function"
    },
    {
      "inputs": [],
      "name": "owner",
      "outputs": [
        {
          "internalType": "address",
          "name": "",
          "type": "address"
        }
      ],
      "stateMutability": "view",
      "type": "function"
    },
    {
      "inputs": [
        {
          "internalType": "uint256",
          "name": "tokenId",
          "type": "uint256"
        }
      ],
      "name": "ownerOf",
      "outputs": [
        {
          "internalType": "address",
          "name": "",
          "type": "address"
        }
      ],
      "stateMutability": "view",
      "type": "function"
    },
    {
      "inputs": [
        {
          "internalType": "address",
          "name": "user",
          "type": "address"
        }
      ],
      "name": "preview",
      "outputs": [
        {
          "internalType": "string",
          "name": "",
          "type": "string"
        }
      ],
      "stateMutability": "view",
      "type": "function"
    },
    {
      "inputs": [
        {
          "internalType": "string",
          "name": "name",
          "type": "string"
        }
      ],
      "name": "previewUsingEnsName",
      "outputs": [
        {
          "internalType": "string",
          "name": "",
          "type": "string"
        }
      ],
      "stateMutability": "view",
      "type": "function"
    },
    {
      "inputs": [],
      "name": "renounceOwnership",
      "outputs": [],
      "stateMutability": "nonpayable",
      "type": "function"
    },
    {
      "inputs": [
        {
          "internalType": "address",
          "name": "from",
          "type": "address"
        },
        {
          "internalType": "address",
          "name": "to",
          "type": "address"
        },
        {
          "internalType": "uint256",
          "name": "tokenId",
          "type": "uint256"
        }
      ],
      "name": "safeTransferFrom",
      "outputs": [],
      "stateMutability": "nonpayable",
      "type": "function"
    },
    {
      "inputs": [
        {
          "internalType": "address",
          "name": "from",
          "type": "address"
        },
        {
          "internalType": "address",
          "name": "to",
          "type": "address"
        },
        {
          "internalType": "uint256",
          "name": "tokenId",
          "type": "uint256"
        },
        {
          "internalType": "bytes",
          "name": "_data",
          "type": "bytes"
        }
      ],
      "name": "safeTransferFrom",
      "outputs": [],
      "stateMutability": "nonpayable",
      "type": "function"
    },
    {
      "inputs": [
        {
          "internalType": "address",
          "name": "operator",
          "type": "address"
        },
        {
          "internalType": "bool",
          "name": "approved",
          "type": "bool"
        }
      ],
      "name": "setApprovalForAll",
      "outputs": [],
      "stateMutability": "nonpayable",
      "type": "function"
    },
    {
      "inputs": [
        {
          "internalType": "address",
          "name": "erc721Storage",
          "type": "address"
        }
      ],
      "name": "setStorage",
      "outputs": [],
      "stateMutability": "nonpayable",
      "type": "function"
    },
    {
      "inputs": [
        {
          "internalType": "bytes4",
          "name": "interfaceId",
          "type": "bytes4"
        }
      ],
      "name": "supportsInterface",
      "outputs": [
        {
          "internalType": "bool",
          "name": "",
          "type": "bool"
        }
      ],
      "stateMutability": "view",
      "type": "function"
    },
    {
      "inputs": [],
      "name": "symbol",
      "outputs": [
        {
          "internalType": "string",
          "name": "",
          "type": "string"
        }
      ],
      "stateMutability": "view",
      "type": "function"
    },
    {
      "inputs": [
        {
          "internalType": "uint256",
          "name": "tokenId",
          "type": "uint256"
        }
      ],
      "name": "tokenURI",
      "outputs": [
        {
          "internalType": "string",
          "name": "",
          "type": "string"
        }
      ],
      "stateMutability": "view",
      "type": "function"
    },
    {
      "inputs": [],
      "name": "totalSupply",
      "outputs": [
        {
          "internalType": "uint256",
          "name": "",
          "type": "uint256"
        }
      ],
      "stateMutability": "view",
      "type": "function"
    },
    {
      "inputs": [
        {
          "internalType": "address",
          "name": "from",
          "type": "address"
        },
        {
          "internalType": "address",
          "name": "to",
          "type": "address"
        },
        {
          "internalType": "uint256",
          "name": "tokenId",
          "type": "uint256"
        }
      ],
      "name": "transferFrom",
      "outputs": [],
      "stateMutability": "nonpayable",
      "type": "function"
    },
    {
      "inputs": [
        {
          "internalType": "address",
          "name": "newOwner",
          "type": "address"
        }
      ],
      "name": "transferOwnership",
      "outputs": [],
      "stateMutability": "nonpayable",
      "type": "function"
    },
    {
      "inputs": [
        {
          "internalType": "uint256",
          "name": "amount",
          "type": "uint256"
        }
      ],
      "name": "withdraw",
      "outputs": [],
      "stateMutability": "nonpayable",
      "type": "function"
    },
    {
      "stateMutability": "payable",
      "type": "receive"
    }
  ],
  "transactionHash": "0x7af0359cbe04a3dba95d7d5394346cbade695deccb81e81557acacba7de98a05",
  "args": [
    "Ethereum Nouns System",
    "eNouns",
    "0xd9DE451856a56f5058DbFAc5e4ADa9C6ff785dDe"
  ],
  "numDeployments": 1,
  "solcInputHash": "82c47bf93137818b4ac6f7666c8827c0",
  "bytecode": "0x60a06040523480156200001157600080fd5b50604051620024b0380380620024b08339810160408190526200003491620001da565b82828282826000620000478382620002f6565b506001620000568282620002f6565b505050620000736200006d620000b760201b60201c565b620000bb565b600880546001600160a01b0319166001600160a01b03929092169190911790555050733671ae578e63fdf66ad4f3e12cc0c0d71ac7510c60805250620003c2915050565b3390565b600680546001600160a01b038381166001600160a01b0319831681179093556040519116919082907f8be0079c531659141344cd1fd0a4f28419497f9722a3daafe3b4186f6b6457e090600090a35050565b634e487b7160e01b600052604160045260246000fd5b600082601f8301126200013557600080fd5b81516001600160401b03808211156200015257620001526200010d565b604051601f8301601f19908116603f011681019082821181831017156200017d576200017d6200010d565b816040528381526020925086838588010111156200019a57600080fd5b600091505b83821015620001be57858201830151818301840152908201906200019f565b83821115620001d05760008385830101525b9695505050505050565b600080600060608486031215620001f057600080fd5b83516001600160401b03808211156200020857600080fd5b620002168783880162000123565b945060208601519150808211156200022d57600080fd5b506200023c8682870162000123565b604086015190935090506001600160a01b03811681146200025c57600080fd5b809150509250925092565b600181811c908216806200027c57607f821691505b6020821081036200029d57634e487b7160e01b600052602260045260246000fd5b50919050565b601f821115620002f157600081815260208120601f850160051c81016020861015620002cc5750805b601f850160051c820191505b81811015620002ed57828155600101620002d8565b5050505b505050565b81516001600160401b038111156200031257620003126200010d565b6200032a8162000323845462000267565b84620002a3565b602080601f831160018114620003625760008415620003495750858301515b600019600386901b1c1916600185901b178555620002ed565b600085815260208120601f198616915b82811015620003935788860151825594840194600190910190840162000372565b5085821015620003b25787850151600019600388901b60f8161c191681555b5050505050600190811b01905550565b6080516120d2620003de6000396000610eee01526120d26000f3fe6080604052600436106101855760003560e01c806365f68c89116100d157806395d89b411161008a578063c87b56dd11610064578063c87b56dd14610492578063e8a3d485146104b2578063e985e9c5146104c7578063f2fde38b1461051057600080fd5b806395d89b411461043d578063a22cb46514610452578063b88d4fde1461047257600080fd5b806365f68c891461037b57806370a08231146103b1578063715018a6146103cc57806387a89ee6146103e15780638da5cb5b146103ff5780639137c1a71461041d57600080fd5b806323b872dd1161013e57806342842e0e1161011857806342842e0e146103135780634e71d92d146103335780635ad0ca9d1461033b5780636352211e1461035b57600080fd5b806323b872dd146102b35780632e1a7d4d146102d35780632f54bf6e146102f357600080fd5b806301ffc9a7146101c557806306fdde03146101fa578063081812fc1461021c578063095ea7b31461025457806313a69df91461027457806318160ddd1461029457600080fd5b366101c05761019833610530565b610530565b6000036101be576101bc336007600081546101b2906119c8565b91829055506105bc565b505b005b600080fd5b3480156101d157600080fd5b506101e56101e03660046119f7565b610680565b60405190151581526020015b60405180910390f35b34801561020657600080fd5b5061020f610691565b6040516101f19190611a6c565b34801561022857600080fd5b5061023c610237366004611a7f565b610723565b6040516001600160a01b0390911681526020016101f1565b34801561026057600080fd5b506101be61026f366004611aad565b6107b8565b34801561028057600080fd5b5061020f61028f366004611ad9565b6108cd565b3480156102a057600080fd5b506007545b6040519081526020016101f1565b3480156102bf57600080fd5b506101be6102ce366004611af6565b610972565b3480156102df57600080fd5b506101be6102ee366004611a7f565b6109a4565b3480156102ff57600080fd5b506101e561030e366004611ad9565b610a5e565b34801561031f57600080fd5b506101be61032e366004611af6565b610a8a565b6101be610aa5565b34801561034757600080fd5b5061020f610356366004611be4565b610acc565b34801561036757600080fd5b5061023c610376366004611a7f565b610baa565b34801561038757600080fd5b506102a5610396366004611ad9565b6001600160a01b03166000908152600a602052604090205490565b3480156103bd57600080fd5b506102a5610193366004611ad9565b3480156103d857600080fd5b506101be610c21565b3480156103ed57600080fd5b506008546001600160a01b031661023c565b34801561040b57600080fd5b506006546001600160a01b031661023c565b34801561042957600080fd5b506101be610438366004611ad9565b610c55565b34801561044957600080fd5b5061020f610ca1565b34801561045e57600080fd5b506101be61046d366004611c2d565b610cb0565b34801561047e57600080fd5b506101be61048d366004611c6b565b610cbb565b34801561049e57600080fd5b5061020f6104ad366004611a7f565b610ced565b3480156104be57600080fd5b5061020f610d80565b3480156104d357600080fd5b506101e56104e2366004611ceb565b6001600160a01b03918216600090815260056020908152604080832093909416825291909152205460ff1690565b34801561051c57600080fd5b506101be61052b366004611ad9565b610df7565b60006001600160a01b0382166105a05760405162461bcd60e51b815260206004820152602a60248201527f4552433732313a2062616c616e636520717565727920666f7220746865207a65604482015269726f206164647265737360b01b60648201526084015b60405180910390fd5b506001600160a01b031660009081526003602052604090205490565b6000806105d06105cb85610e8f565b610f8c565b6000818152600960205260409020549091506001600160a01b0316156106285760405162461bcd60e51b815260206004820152600d60248201526c19539bdd5b9cce9a5cdcdd5959609a1b6044820152606401610597565b6106328484610f98565b6001600160a01b0384166000818152600a602090815260408083208790559382526009815283822080546001600160a01b031916909317909255848152600b90915220349055508092915050565b600061068b826110da565b92915050565b6060600080546106a090611d19565b80601f01602080910402602001604051908101604052809291908181526020018280546106cc90611d19565b80156107195780601f106106ee57610100808354040283529160200191610719565b820191906000526020600020905b8154815290600101906020018083116106fc57829003601f168201915b5050505050905090565b6000818152600260205260408120546001600160a01b031661079c5760405162461bcd60e51b815260206004820152602c60248201527f4552433732313a20617070726f76656420717565727920666f72206e6f6e657860448201526b34b9ba32b73a103a37b5b2b760a11b6064820152608401610597565b506000908152600460205260409020546001600160a01b031690565b60006107c382610baa565b9050806001600160a01b0316836001600160a01b0316036108305760405162461bcd60e51b815260206004820152602160248201527f4552433732313a20617070726f76616c20746f2063757272656e74206f776e656044820152603960f91b6064820152608401610597565b336001600160a01b038216148061084c575061084c81336104e2565b6108be5760405162461bcd60e51b815260206004820152603860248201527f4552433732313a20617070726f76652063616c6c6572206973206e6f74206f7760448201527f6e6572206e6f7220617070726f76656420666f7220616c6c00000000000000006064820152608401610597565b6108c8838361112a565b505050565b604080516001600160a01b03831660208201526060916000910160408051601f1981840301815290829052600854630b35173560e41b83529092506001600160a01b03169063b351735090610926908490600401611a6c565b600060405180830381865afa158015610943573d6000803e3d6000fd5b505050506040513d6000823e601f3d908101601f1916820160405261096b9190810190611d98565b9392505050565b6001600160a01b03831661099957610993826007600081546101b2906119c8565b50505050565b610993838383611198565b6006546001600160a01b031633146109ce5760405162461bcd60e51b815260040161059790611dcd565b604051600090339083908381818185875af1925050503d8060008114610a10576040519150601f19603f3d011682016040523d82523d6000602084013e610a15565b606091505b5050905080610a5a5760405162461bcd60e51b815260206004820152601160248201527015da5d1a191c985dd85b0819985a5b1959607a1b6044820152606401610597565b5050565b6001600160a01b0381166000908152600a6020526040812054610a8257600061068b565b600192915050565b6108c883838360405180602001604052806000815250610cbb565b610aae33610530565b600003610aca57610ac8336007600081546101b2906119c8565b505b565b60085460408051634d0b849560e11b815290516060926001600160a01b031691639a17092a9160048083019260209291908290030181865afa158015610b16573d6000803e3d6000fd5b505050506040513d601f19601f82011682018060405250810190610b3a9190611e02565b6001600160a01b031663a53344e7836040518263ffffffff1660e01b8152600401610b659190611a6c565b600060405180830381865afa158015610b82573d6000803e3d6000fd5b505050506040513d6000823e601f3d908101601f1916820160405261068b9190810190611d98565b6000818152600260205260408120546001600160a01b03168061068b5760405162461bcd60e51b815260206004820152602960248201527f4552433732313a206f776e657220717565727920666f72206e6f6e657869737460448201526832b73a103a37b5b2b760b91b6064820152608401610597565b6006546001600160a01b03163314610c4b5760405162461bcd60e51b815260040161059790611dcd565b610aca6000611249565b6006546001600160a01b03163314610c7f5760405162461bcd60e51b815260040161059790611dcd565b600880546001600160a01b0319166001600160a01b0392909216919091179055565b6060600180546106a090611d19565b610a5a33838361129b565b610cc53383611369565b610ce15760405162461bcd60e51b815260040161059790611e1f565b6109938484848461145f565b6060600080610cfb84611492565b600854604051637833cb0b60e11b81529294509092506001600160a01b03169063f067961690610d3390879086908690600401611e70565b600060405180830381865afa158015610d50573d6000803e3d6000fd5b505050506040513d6000823e601f3d908101601f19168201604052610d789190810190611d98565b949350505050565b60085460408051631c97e82760e21b815290516060926001600160a01b03169163725fa09c9160048083019260009291908290030181865afa158015610dca573d6000803e3d6000fd5b505050506040513d6000823e601f3d908101601f19168201604052610df29190810190611d98565b905090565b6006546001600160a01b03163314610e215760405162461bcd60e51b815260040161059790611dcd565b6001600160a01b038116610e865760405162461bcd60e51b815260206004820152602660248201527f4f776e61626c653a206e6577206f776e657220697320746865207a65726f206160448201526564647265737360d01b6064820152608401610597565b610ac881611249565b60408051600180825281830190925260609160009190602080830190803683370190505090508281600081518110610ec957610ec9611ea5565b6001600160a01b0392831660209182029290920101526040516332fe2d9b60e21b81527f00000000000000000000000000000000000000000000000000000000000000009091169063cbf8b66c90610f25908490600401611ebb565b600060405180830381865afa158015610f42573d6000803e3d6000fd5b505050506040513d6000823e601f3d908101601f19168201604052610f6a9190810190611f08565b600081518110610f7c57610f7c611ea5565b6020026020010151915050919050565b600080610d78836114cf565b6001600160a01b038216610fee5760405162461bcd60e51b815260206004820181905260248201527f4552433732313a206d696e7420746f20746865207a65726f20616464726573736044820152606401610597565b6000818152600260205260409020546001600160a01b0316156110535760405162461bcd60e51b815260206004820152601c60248201527f4552433732313a20746f6b656e20616c7265616479206d696e746564000000006044820152606401610597565b6001600160a01b038216600090815260036020526040812080546001929061107c908490611fcb565b909155505060008181526002602052604080822080546001600160a01b0319166001600160a01b03861690811790915590518392907fddf252ad1be2c89b69c2b068fc378daa952ba7f163c4a11628f55a4df523b3ef908290a45050565b60006001600160e01b031982166380ac58cd60e01b148061110b57506001600160e01b03198216635b5e139f60e01b145b8061068b57506301ffc9a760e01b6001600160e01b031983161461068b565b600081815260046020526040902080546001600160a01b0319166001600160a01b038416908117909155819061115f82610baa565b6001600160a01b03167f8c5be1e5ebec7d5bd14f71427d1e84f3dd0314c0f7b2291e5b200ac8c7c3b92560405160405180910390a45050565b6000836001600160a01b0316600960006111b46105cb87610e8f565b81526020810191909152604001600020546001600160a01b0316146112105760405162461bcd60e51b8152602060048201526012602482015271654e6f756e733a696e76616c69642d656e7360701b6044820152606401610597565b61121b8484846116c4565b6001600160a01b039384166000908152600a6020526040808220829055939094168452919092209190915590565b600680546001600160a01b038381166001600160a01b0319831681179093556040519116919082907f8be0079c531659141344cd1fd0a4f28419497f9722a3daafe3b4186f6b6457e090600090a35050565b816001600160a01b0316836001600160a01b0316036112fc5760405162461bcd60e51b815260206004820152601960248201527f4552433732313a20617070726f766520746f2063616c6c6572000000000000006044820152606401610597565b6001600160a01b03838116600081815260056020908152604080832094871680845294825291829020805460ff191686151590811790915591519182527f17307eab39ab6107e8899845ad3d59bd9653f200f220920489ca2b5937696c31910160405180910390a3505050565b6000818152600260205260408120546001600160a01b03166113e25760405162461bcd60e51b815260206004820152602c60248201527f4552433732313a206f70657261746f7220717565727920666f72206e6f6e657860448201526b34b9ba32b73a103a37b5b2b760a11b6064820152608401610597565b60006113ed83610baa565b9050806001600160a01b0316846001600160a01b0316148061143457506001600160a01b0380821660009081526005602090815260408083209388168352929052205460ff165b80610d785750836001600160a01b031661144d84610723565b6001600160a01b031614949350505050565b61146a8484846116f1565b6114768484848461188d565b6109935760405162461bcd60e51b815260040161059790611fe3565b60608060006114a084610baa565b604080516001600160a01b0390921660208301520160408051601f198184030181529190529485945092505050565b8051606090600090819084906114e6816002611fcb565b67ffffffffffffffff8111156114fe576114fe611b37565b6040519080825280601f01601f191660200182016040528015611528576020820181803683370190505b5094506000935080840361156d57600060f81b8560008151811061154e5761154e611ea5565b60200101906001600160f81b031916908160001a905350505050915091565b60001981015b82818151811061158557611585611ea5565b01602001516001600160f81b031916601760f91b03611613578360f81b8682600101815181106115b7576115b7611ea5565b60200101906001600160f81b031916908160001a905350846115e0846001840160ff881661198e565b60408051602081019390935282015260600160405160208183030381529060405280519060200120945060009350611663565b60018401935082818151811061162b5761162b611ea5565b602001015160f81c60f81b86826001018151811061164b5761164b611ea5565b60200101906001600160f81b031916908160001a9053505b80156116725760001901611573565b508361168383600060ff871661198e565b6040805160208101939093528201526060016040516020818303038152906040528051906020012093508260f81b8560008151811061154e5761154e611ea5565b6116ce3382611369565b6116ea5760405162461bcd60e51b815260040161059790611e1f565b6108c88383835b826001600160a01b031661170482610baa565b6001600160a01b0316146117685760405162461bcd60e51b815260206004820152602560248201527f4552433732313a207472616e736665722066726f6d20696e636f72726563742060448201526437bbb732b960d91b6064820152608401610597565b6001600160a01b0382166117ca5760405162461bcd60e51b8152602060048201526024808201527f4552433732313a207472616e7366657220746f20746865207a65726f206164646044820152637265737360e01b6064820152608401610597565b6117d560008261112a565b6001600160a01b03831660009081526003602052604081208054600192906117fe908490612035565b90915550506001600160a01b038216600090815260036020526040812080546001929061182c908490611fcb565b909155505060008181526002602052604080822080546001600160a01b0319166001600160a01b0386811691821790925591518493918716917fddf252ad1be2c89b69c2b068fc378daa952ba7f163c4a11628f55a4df523b3ef91a4505050565b60006001600160a01b0384163b1561198357604051630a85bd0160e11b81526001600160a01b0385169063150b7a02906118d190339089908890889060040161204c565b6020604051808303816000875af192505050801561190c575060408051601f3d908101601f191682019092526119099181019061207f565b60015b611969573d80801561193a576040519150601f19603f3d011682016040523d82523d6000602084013e61193f565b606091505b5080516000036119615760405162461bcd60e51b815260040161059790611fe3565b805181602001fd5b6001600160e01b031916630a85bd0160e11b149050610d78565b506001949350505050565b825160009061199d8385611fcb565b11156119a857600080fd5b5091016020012090565b634e487b7160e01b600052601160045260246000fd5b6000600182016119da576119da6119b2565b5060010190565b6001600160e01b031981168114610ac857600080fd5b600060208284031215611a0957600080fd5b813561096b816119e1565b60005b83811015611a2f578181015183820152602001611a17565b838111156109935750506000910152565b60008151808452611a58816020860160208601611a14565b601f01601f19169290920160200192915050565b60208152600061096b6020830184611a40565b600060208284031215611a9157600080fd5b5035919050565b6001600160a01b0381168114610ac857600080fd5b60008060408385031215611ac057600080fd5b8235611acb81611a98565b946020939093013593505050565b600060208284031215611aeb57600080fd5b813561096b81611a98565b600080600060608486031215611b0b57600080fd5b8335611b1681611a98565b92506020840135611b2681611a98565b929592945050506040919091013590565b634e487b7160e01b600052604160045260246000fd5b604051601f8201601f1916810167ffffffffffffffff81118282101715611b7657611b76611b37565b604052919050565b600067ffffffffffffffff821115611b9857611b98611b37565b50601f01601f191660200190565b6000611bb9611bb484611b7e565b611b4d565b9050828152838383011115611bcd57600080fd5b828260208301376000602084830101529392505050565b600060208284031215611bf657600080fd5b813567ffffffffffffffff811115611c0d57600080fd5b8201601f81018413611c1e57600080fd5b610d7884823560208401611ba6565b60008060408385031215611c4057600080fd5b8235611c4b81611a98565b915060208301358015158114611c6057600080fd5b809150509250929050565b60008060008060808587031215611c8157600080fd5b8435611c8c81611a98565b93506020850135611c9c81611a98565b925060408501359150606085013567ffffffffffffffff811115611cbf57600080fd5b8501601f81018713611cd057600080fd5b611cdf87823560208401611ba6565b91505092959194509250565b60008060408385031215611cfe57600080fd5b8235611d0981611a98565b91506020830135611c6081611a98565b600181811c90821680611d2d57607f821691505b602082108103611d4d57634e487b7160e01b600052602260045260246000fd5b50919050565b600082601f830112611d6457600080fd5b8151611d72611bb482611b7e565b818152846020838601011115611d8757600080fd5b610d78826020830160208701611a14565b600060208284031215611daa57600080fd5b815167ffffffffffffffff811115611dc157600080fd5b610d7884828501611d53565b6020808252818101527f4f776e61626c653a2063616c6c6572206973206e6f7420746865206f776e6572604082015260600190565b600060208284031215611e1457600080fd5b815161096b81611a98565b60208082526031908201527f4552433732313a207472616e736665722063616c6c6572206973206e6f74206f6040820152701ddb995c881b9bdc88185c1c1c9bdd9959607a1b606082015260800190565b838152606060208201526000611e896060830185611a40565b8281036040840152611e9b8185611a40565b9695505050505050565b634e487b7160e01b600052603260045260246000fd5b6020808252825182820181905260009190848201906040850190845b81811015611efc5783516001600160a01b031683529284019291840191600101611ed7565b50909695505050505050565b60006020808385031215611f1b57600080fd5b825167ffffffffffffffff80821115611f3357600080fd5b818501915085601f830112611f4757600080fd5b815181811115611f5957611f59611b37565b8060051b611f68858201611b4d565b9182528381018501918581019089841115611f8257600080fd5b86860192505b83831015611fbe57825185811115611fa05760008081fd5b611fae8b89838a0101611d53565b8352509186019190860190611f88565b9998505050505050505050565b60008219821115611fde57611fde6119b2565b500190565b60208082526032908201527f4552433732313a207472616e7366657220746f206e6f6e20455243373231526560408201527131b2b4bb32b91034b6b83632b6b2b73a32b960711b606082015260800190565b600082821015612047576120476119b2565b500390565b6001600160a01b0385811682528416602082015260408101839052608060608201819052600090611e9b90830184611a40565b60006020828403121561209157600080fd5b815161096b816119e156fea2646970667358221220ce90e19e818a021646da117a70c6812cb3be3202b2145e02c8ea5b9369c142eb64736f6c634300080f0033",
  "devdoc": {
    "author": "Kames Geraghty",
    "kind": "dev",
    "methods": {
      "approve(address,uint256)": {
        "details": "See {IERC721-approve}."
      },
      "balanceOf(address)": {
        "details": "See {IERC721-balanceOf}."
      },
      "constructor": {
        "params": {
          "_erc721Storage_": "address - Metadata instance",
          "name_": "string - Name of ERC721 token",
          "symbol_": "string - Symbol of ERC721 token"
        }
      },
      "getApproved(uint256)": {
        "details": "See {IERC721-getApproved}."
      },
      "getERC721Storage()": {
        "returns": {
          "_0": "storage Metadata"
        }
      },
      "isApprovedForAll(address,address)": {
        "details": "See {IERC721-isApprovedForAll}."
      },
      "name()": {
        "details": "See {IERC721Metadata-name}."
      },
      "owner()": {
        "details": "Returns the address of the current owner."
      },
      "ownerOf(uint256)": {
        "details": "See {IERC721-ownerOf}."
      },
      "renounceOwnership()": {
        "details": "Leaves the contract without owner. It will not be possible to call `onlyOwner` functions anymore. Can only be called by the current owner. NOTE: Renouncing ownership will leave the contract without an owner, thereby removing any functionality that is only available to the owner."
      },
      "safeTransferFrom(address,address,uint256)": {
        "details": "See {IERC721-safeTransferFrom}."
      },
      "safeTransferFrom(address,address,uint256,bytes)": {
        "details": "See {IERC721-safeTransferFrom}."
      },
      "setApprovalForAll(address,bool)": {
        "details": "See {IERC721-setApprovalForAll}."
      },
      "setStorage(address)": {
        "params": {
          "erc721Storage": "address"
        }
      },
      "supportsInterface(bytes4)": {
        "details": "See {IERC165-supportsInterface}."
      },
      "symbol()": {
        "details": "See {IERC721Metadata-symbol}."
      },
      "tokenURI(uint256)": {
        "params": {
          "tokenId": "uint256"
        },
        "returns": {
          "_0": "metadata string"
        }
      },
      "transferFrom(address,address,uint256)": {
        "details": "See {IERC721-transferFrom}."
      },
      "transferOwnership(address)": {
        "details": "Transfers ownership of the contract to a new account (`newOwner`). Can only be called by the current owner."
      }
    },
    "title": "eNouns",
    "version": 1
  },
  "userdoc": {
    "kind": "user",
    "methods": {
      "constructor": {
        "notice": "ERC721K Construction"
      },
      "getERC721Storage()": {
        "notice": "Get Metadata instance"
      },
      "preview(address)": {
        "notice": "Given an address, construct a base64 encoded SVG image."
      },
      "setStorage(address)": {
        "notice": "Set Metadata instance"
      },
      "tokenURI(uint256)": {
        "notice": "Generate token URI"
      }
    },
    "notice": "Nouns and Ethereum Name System combo; PFP generated from ENS domain bytes32 node.",
    "version": 1
  },
  "storageLayout": {
    "storage": [
      {
        "astId": 130,
        "contract": "contracts/ENouns.sol:ENouns",
        "label": "_name",
        "offset": 0,
        "slot": "0",
        "type": "t_string_storage"
      },
      {
        "astId": 132,
        "contract": "contracts/ENouns.sol:ENouns",
        "label": "_symbol",
        "offset": 0,
        "slot": "1",
        "type": "t_string_storage"
      },
      {
        "astId": 136,
        "contract": "contracts/ENouns.sol:ENouns",
        "label": "_owners",
        "offset": 0,
        "slot": "2",
        "type": "t_mapping(t_uint256,t_address)"
      },
      {
        "astId": 140,
        "contract": "contracts/ENouns.sol:ENouns",
        "label": "_balances",
        "offset": 0,
        "slot": "3",
        "type": "t_mapping(t_address,t_uint256)"
      },
      {
        "astId": 144,
        "contract": "contracts/ENouns.sol:ENouns",
        "label": "_tokenApprovals",
        "offset": 0,
        "slot": "4",
        "type": "t_mapping(t_uint256,t_address)"
      },
      {
        "astId": 150,
        "contract": "contracts/ENouns.sol:ENouns",
        "label": "_operatorApprovals",
        "offset": 0,
        "slot": "5",
        "type": "t_mapping(t_address,t_mapping(t_address,t_bool))"
      },
      {
        "astId": 7,
        "contract": "contracts/ENouns.sol:ENouns",
        "label": "_owner",
        "offset": 0,
        "slot": "6",
        "type": "t_address"
      },
      {
        "astId": 2917,
        "contract": "contracts/ENouns.sol:ENouns",
        "label": "_idCounter",
        "offset": 0,
        "slot": "7",
        "type": "t_uint256"
      },
      {
        "astId": 2919,
        "contract": "contracts/ENouns.sol:ENouns",
        "label": "_erc721Storage",
        "offset": 0,
        "slot": "8",
        "type": "t_address"
      },
      {
        "astId": 1831,
        "contract": "contracts/ENouns.sol:ENouns",
        "label": "_ensReverseRecordsMap",
        "offset": 0,
        "slot": "9",
        "type": "t_mapping(t_bytes32,t_address)"
      },
      {
        "astId": 1836,
        "contract": "contracts/ENouns.sol:ENouns",
        "label": "_tokenIds",
        "offset": 0,
        "slot": "10",
        "type": "t_mapping(t_address,t_uint256)"
      },
      {
        "astId": 1841,
        "contract": "contracts/ENouns.sol:ENouns",
        "label": "_mintPrice",
        "offset": 0,
        "slot": "11",
        "type": "t_mapping(t_uint256,t_uint256)"
      }
    ],
    "types": {
      "t_address": {
        "encoding": "inplace",
        "label": "address",
        "numberOfBytes": "20"
      },
      "t_bool": {
        "encoding": "inplace",
        "label": "bool",
        "numberOfBytes": "1"
      },
      "t_bytes32": {
        "encoding": "inplace",
        "label": "bytes32",
        "numberOfBytes": "32"
      },
      "t_mapping(t_address,t_bool)": {
        "encoding": "mapping",
        "key": "t_address",
        "label": "mapping(address => bool)",
        "numberOfBytes": "32",
        "value": "t_bool"
      },
      "t_mapping(t_address,t_mapping(t_address,t_bool))": {
        "encoding": "mapping",
        "key": "t_address",
        "label": "mapping(address => mapping(address => bool))",
        "numberOfBytes": "32",
        "value": "t_mapping(t_address,t_bool)"
      },
      "t_mapping(t_address,t_uint256)": {
        "encoding": "mapping",
        "key": "t_address",
        "label": "mapping(address => uint256)",
        "numberOfBytes": "32",
        "value": "t_uint256"
      },
      "t_mapping(t_bytes32,t_address)": {
        "encoding": "mapping",
        "key": "t_bytes32",
        "label": "mapping(bytes32 => address)",
        "numberOfBytes": "32",
        "value": "t_address"
      },
      "t_mapping(t_uint256,t_address)": {
        "encoding": "mapping",
        "key": "t_uint256",
        "label": "mapping(uint256 => address)",
        "numberOfBytes": "32",
        "value": "t_address"
      },
      "t_mapping(t_uint256,t_uint256)": {
        "encoding": "mapping",
        "key": "t_uint256",
        "label": "mapping(uint256 => uint256)",
        "numberOfBytes": "32",
        "value": "t_uint256"
      },
      "t_string_storage": {
        "encoding": "bytes",
        "label": "string",
        "numberOfBytes": "32"
      },
      "t_uint256": {
        "encoding": "inplace",
        "label": "uint256",
        "numberOfBytes": "32"
      }
    }
  }
}