{
  "address": "0x8c583E6EF57E73f8A5057F266BBb713D3F690e47",
  "abi": [
    {
      "inputs": [
        {
          "internalType": "address",
          "name": "_svgRender_",
          "type": "address"
        },
        {
          "internalType": "address",
          "name": "_traitsFetch_",
          "type": "address"
        },
        {
          "components": [
            {
              "internalType": "string",
              "name": "name",
              "type": "string"
            },
            {
              "internalType": "string",
              "name": "description",
              "type": "string"
            },
            {
              "internalType": "string",
              "name": "image",
              "type": "string"
            },
            {
              "internalType": "string",
              "name": "external_link",
              "type": "string"
            },
            {
              "internalType": "string",
              "name": "seller_fee_basis_points",
              "type": "string"
            },
            {
              "internalType": "string",
              "name": "fee_recipient",
              "type": "string"
            }
          ],
          "internalType": "struct ERC721Storage.ContractURI",
          "name": "_contractURI_",
          "type": "tuple"
        }
      ],
      "stateMutability": "nonpayable",
      "type": "constructor"
    },
    {
      "anonymous": false,
      "inputs": [
        {
          "indexed": true,
          "internalType": "address",
          "name": "previousOwner",
          "type": "address"
        },
        {
          "indexed": true,
          "internalType": "address",
          "name": "newOwner",
          "type": "address"
        }
      ],
      "name": "OwnershipTransferred",
      "type": "event"
    },
    {
      "inputs": [],
      "name": "constructContractURI",
      "outputs": [
        {
          "internalType": "string",
          "name": "uri",
          "type": "string"
        }
      ],
      "stateMutability": "view",
      "type": "function"
    },
    {
      "inputs": [
        {
          "internalType": "uint256",
          "name": "tokenId",
          "type": "uint256"
        },
        {
          "internalType": "bytes",
          "name": "input0",
          "type": "bytes"
        },
        {
          "internalType": "bytes",
          "name": "input1",
          "type": "bytes"
        }
      ],
      "name": "constructTokenURI",
      "outputs": [
        {
          "internalType": "string",
          "name": "uri",
          "type": "string"
        }
      ],
      "stateMutability": "view",
      "type": "function"
    },
    {
      "inputs": [],
      "name": "getSvgRender",
      "outputs": [
        {
          "internalType": "address",
          "name": "",
          "type": "address"
        }
      ],
      "stateMutability": "view",
      "type": "function"
    },
    {
      "inputs": [],
      "name": "getTraitsFetch",
      "outputs": [
        {
          "internalType": "address",
          "name": "",
          "type": "address"
        }
      ],
      "stateMutability": "view",
      "type": "function"
    },
    {
      "inputs": [],
      "name": "owner",
      "outputs": [
        {
          "internalType": "address",
          "name": "",
          "type": "address"
        }
      ],
      "stateMutability": "view",
      "type": "function"
    },
    {
      "inputs": [
        {
          "internalType": "bytes",
          "name": "input",
          "type": "bytes"
        }
      ],
      "name": "preview",
      "outputs": [
        {
          "internalType": "string",
          "name": "",
          "type": "string"
        }
      ],
      "stateMutability": "view",
      "type": "function"
    },
    {
      "inputs": [],
      "name": "renounceOwnership",
      "outputs": [],
      "stateMutability": "nonpayable",
      "type": "function"
    },
    {
      "inputs": [
        {
          "internalType": "address",
          "name": "newOwner",
          "type": "address"
        }
      ],
      "name": "transferOwnership",
      "outputs": [],
      "stateMutability": "nonpayable",
      "type": "function"
    }
  ],
  "transactionHash": "0xecf9616eb8e9784dd9e9ad122f63f630666fe2f172cbe36e4526af49bf62fe53",
  "args": [
    "0xE5D37a2eBE3e917Db52A35f248576e1EE4C886Fd",
    "0x0000000000000000000000000000000000000000",
    {
      "name": "ENounsRender",
      "description": "ENounsRender",
      "image": "https://raw.githubusercontent.com/ENounsRender/ENounsRender/master/logo.png",
      "external_link": "https://ENounsRender.com",
      "seller_fee_basis_points": "0",
      "fee_recipient": "0x0000000000000000000000000000000000000000"
    }
  ],
  "numDeployments": 1,
  "solcInputHash": "bbd9a653e7516b4e458dabe2ad1b4fce",
  "bytecode": "0x60806040523480156200001157600080fd5b50604051620011f6380380620011f683398101604081905262000034916200027a565b6200003f3362000104565b600180546001600160a01b038086166001600160a01b031992831617909255600280549285169290911691909117905580518190600390819062000084908262000468565b50602082015160018201906200009b908262000468565b5060408201516002820190620000b2908262000468565b5060608201516003820190620000c9908262000468565b5060808201516004820190620000e0908262000468565b5060a08201516005820190620000f7908262000468565b5090505050505062000534565b600080546001600160a01b038381166001600160a01b0319831681178455604051919092169283917f8be0079c531659141344cd1fd0a4f28419497f9722a3daafe3b4186f6b6457e09190a35050565b80516001600160a01b03811681146200016c57600080fd5b919050565b634e487b7160e01b600052604160045260246000fd5b60405160c081016001600160401b0381118282101715620001ac57620001ac62000171565b60405290565b604051601f8201601f191681016001600160401b0381118282101715620001dd57620001dd62000171565b604052919050565b600082601f830112620001f757600080fd5b81516001600160401b0381111562000213576200021362000171565b602062000229601f8301601f19168201620001b2565b82815285828487010111156200023e57600080fd5b60005b838110156200025e57858101830151828201840152820162000241565b83811115620002705760008385840101525b5095945050505050565b6000806000606084860312156200029057600080fd5b6200029b8462000154565b9250620002ab6020850162000154565b60408501519092506001600160401b0380821115620002c957600080fd5b9085019060c08288031215620002de57600080fd5b620002e862000187565b825182811115620002f857600080fd5b6200030689828601620001e5565b8252506020830151828111156200031c57600080fd5b6200032a89828601620001e5565b6020830152506040830151828111156200034357600080fd5b6200035189828601620001e5565b6040830152506060830151828111156200036a57600080fd5b6200037889828601620001e5565b6060830152506080830151828111156200039157600080fd5b6200039f89828601620001e5565b60808301525060a083015182811115620003b857600080fd5b620003c689828601620001e5565b60a0830152508093505050509250925092565b600181811c90821680620003ee57607f821691505b6020821081036200040f57634e487b7160e01b600052602260045260246000fd5b50919050565b601f8211156200046357600081815260208120601f850160051c810160208610156200043e5750805b601f850160051c820191505b818110156200045f578281556001016200044a565b5050505b505050565b81516001600160401b0381111562000484576200048462000171565b6200049c81620004958454620003d9565b8462000415565b602080601f831160018114620004d45760008415620004bb5750858301515b600019600386901b1c1916600185901b1785556200045f565b600085815260208120601f198616915b828110156200050557888601518255948401946001909101908401620004e4565b5085821015620005245787850151600019600388901b60f8161c191681555b5050505050600190811b01905550565b610cb280620005446000396000f3fe608060405234801561001057600080fd5b50600436106100885760003560e01c8063a3f22a201161005b578063a3f22a20146100eb578063b3517350146100fc578063f06796161461010f578063f2fde38b1461012257600080fd5b8063715018a61461008d578063725fa09c146100975780638da5cb5b146100b55780639a17092a146100da575b600080fd5b610095610135565b005b61009f6101a0565b6040516100ac9190610656565b60405180910390f35b6000546001600160a01b03165b6040516001600160a01b0390911681526020016100ac565b6001546001600160a01b03166100c2565b6002546001600160a01b03166100c2565b61009f61010a366004610735565b610200565b61009f61011d366004610772565b61027c565b6100956101303660046107df565b61037a565b6000546001600160a01b031633146101945760405162461bcd60e51b815260206004820181905260248201527f4f776e61626c653a2063616c6c6572206973206e6f7420746865206f776e657260448201526064015b60405180910390fd5b61019e6000610445565b565b6040516060906101dc906101c8906003906004906005906006906007906008906020016108a5565b604051602081830303815290604052610495565b6040516020016101ec9190610a2d565b604051602081830303815290604052905090565b6001546040516318b6fb0f60e11b81526060916001600160a01b03169063316df61e90610231908590600401610656565b600060405180830381865afa15801561024e573d6000803e3d6000fd5b505050506040513d6000823e601f3d908101601f191682016040526102769190810190610a72565b92915050565b6001546040516318b6fb0f60e11b81526060916000916001600160a01b039091169063316df61e906102b2908790600401610656565b600060405180830381865afa1580156102cf573d6000803e3d6000fd5b505050506040513d6000823e601f3d908101601f191682016040526102f79190810190610a72565b90506103516103206040805180820190915260078152664552433732314b60c81b602082015290565b6040805180820190915260078152664552433732314b60c81b6020820152836040516020016101c893929190610ae9565b6040516020016103619190610a2d565b6040516020818303038152906040529150509392505050565b6000546001600160a01b031633146103d45760405162461bcd60e51b815260206004820181905260248201527f4f776e61626c653a2063616c6c6572206973206e6f7420746865206f776e6572604482015260640161018b565b6001600160a01b0381166104395760405162461bcd60e51b815260206004820152602660248201527f4f776e61626c653a206e6577206f776e657220697320746865207a65726f206160448201526564647265737360d01b606482015260840161018b565b61044281610445565b50565b600080546001600160a01b038381166001600160a01b0319831681178455604051919092169283917f8be0079c531659141344cd1fd0a4f28419497f9722a3daafe3b4186f6b6457e09190a35050565b606081516000036104b457505060408051602081019091526000815290565b6000604051806060016040528060408152602001610c3d60409139905060006003845160026104e39190610be3565b6104ed9190610bfb565b6104f8906004610c1d565b90506000610507826020610be3565b67ffffffffffffffff81111561051f5761051f610670565b6040519080825280601f01601f191660200182016040528015610549576020820181803683370190505b509050818152600183018586518101602084015b818310156105b5576003830192508251603f8160121c168501518253600182019150603f81600c1c168501518253600182019150603f8160061c168501518253600182019150603f811685015182535060010161055d565b6003895106600181146105cf57600281146105e0576105ec565b613d3d60f01b6001198301526105ec565b603d60f81b6000198301525b509398975050505050505050565b60005b838110156106155781810151838201526020016105fd565b83811115610624576000848401525b50505050565b600081518084526106428160208601602086016105fa565b601f01601f19169290920160200192915050565b602081526000610669602083018461062a565b9392505050565b634e487b7160e01b600052604160045260246000fd5b604051601f8201601f1916810167ffffffffffffffff811182821017156106af576106af610670565b604052919050565b600067ffffffffffffffff8211156106d1576106d1610670565b50601f01601f191660200190565b600082601f8301126106f057600080fd5b81356107036106fe826106b7565b610686565b81815284602083860101111561071857600080fd5b816020850160208301376000918101602001919091529392505050565b60006020828403121561074757600080fd5b813567ffffffffffffffff81111561075e57600080fd5b61076a848285016106df565b949350505050565b60008060006060848603121561078757600080fd5b83359250602084013567ffffffffffffffff808211156107a657600080fd5b6107b2878388016106df565b935060408601359150808211156107c857600080fd5b506107d5868287016106df565b9150509250925092565b6000602082840312156107f157600080fd5b81356001600160a01b038116811461066957600080fd5b8054600090600181811c908083168061082257607f831692505b6020808410820361084357634e487b7160e01b600052602260045260246000fd5b818015610857576001811461086c57610899565b60ff1986168952841515850289019650610899565b60008881526020902060005b868110156108915781548b820152908501908301610878565b505084890196505b50505050505092915050565b673d913730b6b2911d60c11b8152601160f91b600882015260006108cc6009830189610808565b61088b60f21b815260026108f28183016d113232b9b1b934b83a34b7b7111d60911b9052565b601160f91b6010830152610909601183018a610808565b61088b60f21b81529150671134b6b0b3b2911d60c11b82820152601160f91b600a83015261093a600b830189610808565b61088b60f21b815291506f1132bc3a32b93730b62fb634b735911d60811b82820152601160f91b60128301526109736013830188610808565b61088b60f21b815291507f2273656c6c65725f6665655f62617369735f706f696e7473223a00000000000082820152601160f91b601c8301526109b9601d830187610808565b61088b60f21b815291506f113332b2afb932b1b4b834b2b73a111d60811b82820152601160f91b60128301526109f26013830186610808565b601160f91b8152607d60f81b6001820152019998505050505050505050565b60008151610a238185602086016105fa565b9290920192915050565b7f646174613a6170706c69636174696f6e2f6a736f6e3b6261736536342c000000815260008251610a6581601d8501602087016105fa565b91909101601d0192915050565b600060208284031215610a8457600080fd5b815167ffffffffffffffff811115610a9b57600080fd5b8201601f81018413610aac57600080fd5b8051610aba6106fe826106b7565b818152856020838501011115610acf57600080fd5b610ae08260208301602086016105fa565b95945050505050565b673d913730b6b2911d60c11b8152601160f91b60088201528351600090610b178160098501602089016105fa565b61088b60f21b6009918401918201526d113232b9b1b934b83a34b7b7111d60911b600b820152610b4d60198201601160f91b9052565b610b5a601a820186610a11565b61088b60f21b81529050671134b6b0b3b2911d60c11b6002820152601160f91b600a820152610b8c600b820185610a11565b61088b60f21b81526e2261747472696275746573223a205b60881b6002820152605d60f81b6011820152607d60f81b60128201526013019695505050505050565b634e487b7160e01b600052601160045260246000fd5b60008219821115610bf657610bf6610bcd565b500190565b600082610c1857634e487b7160e01b600052601260045260246000fd5b500490565b6000816000190483118215151615610c3757610c37610bcd565b50029056fe4142434445464748494a4b4c4d4e4f505152535455565758595a6162636465666768696a6b6c6d6e6f707172737475767778797a303132333435363738392b2fa264697066735822122028fa9a7bf6673cd4827854b630b18fa3d6a5d8fb0c304910ac9ed51c255d24c764736f6c634300080f0033",
  "devdoc": {
    "author": "Kames Geraghty",
    "kind": "dev",
    "methods": {
      "owner()": {
        "details": "Returns the address of the current owner."
      },
      "renounceOwnership()": {
        "details": "Leaves the contract without owner. It will not be possible to call `onlyOwner` functions anymore. Can only be called by the current owner. NOTE: Renouncing ownership will leave the contract without an owner, thereby removing any functionality that is only available to the owner."
      },
      "transferOwnership(address)": {
        "details": "Transfers ownership of the contract to a new account (`newOwner`). Can only be called by the current owner."
      }
    },
    "title": "ERC721Storage",
    "version": 1
  },
  "userdoc": {
    "kind": "user",
    "methods": {
      "preview(bytes)": {
        "notice": "Given an address, construct a base64 encoded SVG image."
      }
    },
    "version": 1
  },
  "storageLayout": {
    "storage": [
      {
        "astId": 7,
        "contract": "contracts/ERC721Storage.sol:ERC721Storage",
        "label": "_owner",
        "offset": 0,
        "slot": "0",
        "type": "t_address"
      },
      {
        "astId": 2603,
        "contract": "contracts/ERC721Storage.sol:ERC721Storage",
        "label": "_svgRender",
        "offset": 0,
        "slot": "1",
        "type": "t_address"
      },
      {
        "astId": 2605,
        "contract": "contracts/ERC721Storage.sol:ERC721Storage",
        "label": "_traitsFetch",
        "offset": 0,
        "slot": "2",
        "type": "t_address"
      },
      {
        "astId": 2608,
        "contract": "contracts/ERC721Storage.sol:ERC721Storage",
        "label": "_contractURI",
        "offset": 0,
        "slot": "3",
        "type": "t_struct(ContractURI)2621_storage"
      }
    ],
    "types": {
      "t_address": {
        "encoding": "inplace",
        "label": "address",
        "numberOfBytes": "20"
      },
      "t_string_storage": {
        "encoding": "bytes",
        "label": "string",
        "numberOfBytes": "32"
      },
      "t_struct(ContractURI)2621_storage": {
        "encoding": "inplace",
        "label": "struct ERC721Storage.ContractURI",
        "members": [
          {
            "astId": 2610,
            "contract": "contracts/ERC721Storage.sol:ERC721Storage",
            "label": "name",
            "offset": 0,
            "slot": "0",
            "type": "t_string_storage"
          },
          {
            "astId": 2612,
            "contract": "contracts/ERC721Storage.sol:ERC721Storage",
            "label": "description",
            "offset": 0,
            "slot": "1",
            "type": "t_string_storage"
          },
          {
            "astId": 2614,
            "contract": "contracts/ERC721Storage.sol:ERC721Storage",
            "label": "image",
            "offset": 0,
            "slot": "2",
            "type": "t_string_storage"
          },
          {
            "astId": 2616,
            "contract": "contracts/ERC721Storage.sol:ERC721Storage",
            "label": "external_link",
            "offset": 0,
            "slot": "3",
            "type": "t_string_storage"
          },
          {
            "astId": 2618,
            "contract": "contracts/ERC721Storage.sol:ERC721Storage",
            "label": "seller_fee_basis_points",
            "offset": 0,
            "slot": "4",
            "type": "t_string_storage"
          },
          {
            "astId": 2620,
            "contract": "contracts/ERC721Storage.sol:ERC721Storage",
            "label": "fee_recipient",
            "offset": 0,
            "slot": "5",
            "type": "t_string_storage"
          }
        ],
        "numberOfBytes": "192"
      }
    }
  }
}